{
  "_format": "hh-sol-artifact-1",
  "contractName": "LiquidityManager",
  "sourceName": "contracts/LiquidityManager.sol",
  "abi": [
    {
      "inputs": [
        {
          "internalType": "address",
          "name": "_uniswapRouter",
          "type": "address"
        },
        {
          "internalType": "address",
          "name": "_treasury",
          "type": "address"
        }
      ],
      "stateMutability": "nonpayable",
      "type": "constructor"
    },
    {
      "inputs": [],
      "name": "ApprovalFailed",
      "type": "error"
    },
    {
      "inputs": [],
      "name": "DeadlineExpired",
      "type": "error"
    },
    {
      "inputs": [],
      "name": "InsufficientBalance",
      "type": "error"
    },
    {
      "inputs": [],
      "name": "InvalidAddress",
      "type": "error"
    },
    {
      "inputs": [],
      "name": "InvalidAmount",
      "type": "error"
    },
    {
      "inputs": [],
      "name": "InvalidRouter",
      "type": "error"
    },
    {
      "inputs": [],
      "name": "InvalidToken",
      "type": "error"
    },
    {
      "inputs": [],
      "name": "InvalidTreasury",
      "type": "error"
    },
    {
      "inputs": [
        {
          "internalType": "address",
          "name": "owner",
          "type": "address"
        }
      ],
      "name": "OwnableInvalidOwner",
      "type": "error"
    },
    {
      "inputs": [
        {
          "internalType": "address",
          "name": "account",
          "type": "address"
        }
      ],
      "name": "OwnableUnauthorizedAccount",
      "type": "error"
    },
    {
      "inputs": [],
      "name": "ReentrancyGuardReentrantCall",
      "type": "error"
    },
    {
      "inputs": [
        {
          "internalType": "address",
          "name": "token",
          "type": "address"
        }
      ],
      "name": "SafeERC20FailedOperation",
      "type": "error"
    },
    {
      "inputs": [],
      "name": "SlippageExceeded",
      "type": "error"
    },
    {
      "anonymous": false,
      "inputs": [
        {
          "indexed": true,
          "internalType": "address",
          "name": "lpToken",
          "type": "address"
        },
        {
          "indexed": false,
          "internalType": "uint256",
          "name": "amount",
          "type": "uint256"
        },
        {
          "indexed": true,
          "internalType": "address",
          "name": "to",
          "type": "address"
        }
      ],
      "name": "LPTokenWithdrawn",
      "type": "event"
    },
    {
      "anonymous": false,
      "inputs": [
        {
          "indexed": true,
          "internalType": "address",
          "name": "tokenA",
          "type": "address"
        },
        {
          "indexed": true,
          "internalType": "address",
          "name": "tokenB",
          "type": "address"
        },
        {
          "indexed": false,
          "internalType": "uint256",
          "name": "amountA",
          "type": "uint256"
        },
        {
          "indexed": false,
          "internalType": "uint256",
          "name": "amountB",
          "type": "uint256"
        },
        {
          "indexed": false,
          "internalType": "uint256",
          "name": "liquidity",
          "type": "uint256"
        },
        {
          "indexed": true,
          "internalType": "address",
          "name": "to",
          "type": "address"
        }
      ],
      "name": "LiquidityAdded",
      "type": "event"
    },
    {
      "anonymous": false,
      "inputs": [
        {
          "indexed": true,
          "internalType": "address",
          "name": "tokenA",
          "type": "address"
        },
        {
          "indexed": true,
          "internalType": "address",
          "name": "tokenB",
          "type": "address"
        },
        {
          "indexed": false,
          "internalType": "uint256",
          "name": "liquidity",
          "type": "uint256"
        },
        {
          "indexed": false,
          "internalType": "uint256",
          "name": "amountA",
          "type": "uint256"
        },
        {
          "indexed": false,
          "internalType": "uint256",
          "name": "amountB",
          "type": "uint256"
        },
        {
          "indexed": true,
          "internalType": "address",
          "name": "to",
          "type": "address"
        }
      ],
      "name": "LiquidityRemoved",
      "type": "event"
    },
    {
      "anonymous": false,
      "inputs": [
        {
          "indexed": true,
          "internalType": "address",
          "name": "previousOwner",
          "type": "address"
        },
        {
          "indexed": true,
          "internalType": "address",
          "name": "newOwner",
          "type": "address"
        }
      ],
      "name": "OwnershipTransferred",
      "type": "event"
    },
    {
      "anonymous": false,
      "inputs": [
        {
          "indexed": true,
          "internalType": "address",
          "name": "oldPoolManager",
          "type": "address"
        },
        {
          "indexed": true,
          "internalType": "address",
          "name": "newPoolManager",
          "type": "address"
        }
      ],
      "name": "PoolManagerUpdated",
      "type": "event"
    },
    {
      "anonymous": false,
      "inputs": [
        {
          "indexed": true,
          "internalType": "address",
          "name": "token",
          "type": "address"
        },
        {
          "indexed": false,
          "internalType": "uint256",
          "name": "amount",
          "type": "uint256"
        },
        {
          "indexed": true,
          "internalType": "address",
          "name": "to",
          "type": "address"
        }
      ],
      "name": "TokensRecovered",
      "type": "event"
    },
    {
      "anonymous": false,
      "inputs": [
        {
          "indexed": true,
          "internalType": "address",
          "name": "oldTreasury",
          "type": "address"
        },
        {
          "indexed": true,
          "internalType": "address",
          "name": "newTreasury",
          "type": "address"
        }
      ],
      "name": "TreasuryUpdated",
      "type": "event"
    },
    {
      "inputs": [
        {
          "components": [
            {
              "internalType": "address",
              "name": "tokenA",
              "type": "address"
            },
            {
              "internalType": "address",
              "name": "tokenB",
              "type": "address"
            },
            {
              "internalType": "uint256",
              "name": "amountADesired",
              "type": "uint256"
            },
            {
              "internalType": "uint256",
              "name": "amountBDesired",
              "type": "uint256"
            },
            {
              "internalType": "uint256",
              "name": "amountAMin",
              "type": "uint256"
            },
            {
              "internalType": "uint256",
              "name": "amountBMin",
              "type": "uint256"
            },
            {
              "internalType": "address",
              "name": "to",
              "type": "address"
            },
            {
              "internalType": "uint256",
              "name": "deadline",
              "type": "uint256"
            }
          ],
          "internalType": "struct LiquidityManager.AddLiquidityParams",
          "name": "params",
          "type": "tuple"
        }
      ],
      "name": "addLiquidity",
      "outputs": [
        {
          "internalType": "uint256",
          "name": "amountA",
          "type": "uint256"
        },
        {
          "internalType": "uint256",
          "name": "amountB",
          "type": "uint256"
        },
        {
          "internalType": "uint256",
          "name": "liquidity",
          "type": "uint256"
        }
      ],
      "stateMutability": "nonpayable",
      "type": "function"
    },
    {
      "inputs": [
        {
          "components": [
            {
              "internalType": "address",
              "name": "tokenA",
              "type": "address"
            },
            {
              "internalType": "address",
              "name": "tokenB",
              "type": "address"
            },
            {
              "internalType": "uint256",
              "name": "amountADesired",
              "type": "uint256"
            },
            {
              "internalType": "uint256",
              "name": "amountBDesired",
              "type": "uint256"
            },
            {
              "internalType": "uint256",
              "name": "amountAMin",
              "type": "uint256"
            },
            {
              "internalType": "uint256",
              "name": "amountBMin",
              "type": "uint256"
            },
            {
              "internalType": "address",
              "name": "to",
              "type": "address"
            },
            {
              "internalType": "uint256",
              "name": "deadline",
              "type": "uint256"
            }
          ],
          "internalType": "struct LiquidityManager.AddLiquidityParams",
          "name": "params",
          "type": "tuple"
        },
        {
          "internalType": "uint256",
          "name": "poolId",
          "type": "uint256"
        },
        {
          "internalType": "address",
          "name": "ecmToken",
          "type": "address"
        }
      ],
      "name": "addLiquidityWithTracking",
      "outputs": [
        {
          "internalType": "uint256",
          "name": "amountA",
          "type": "uint256"
        },
        {
          "internalType": "uint256",
          "name": "amountB",
          "type": "uint256"
        },
        {
          "internalType": "uint256",
          "name": "liquidity",
          "type": "uint256"
        }
      ],
      "stateMutability": "nonpayable",
      "type": "function"
    },
    {
      "inputs": [
        {
          "internalType": "address",
          "name": "token",
          "type": "address"
        }
      ],
      "name": "getTokenBalance",
      "outputs": [
        {
          "internalType": "uint256",
          "name": "balance",
          "type": "uint256"
        }
      ],
      "stateMutability": "view",
      "type": "function"
    },
    {
      "inputs": [
        {
          "internalType": "address",
          "name": "tokenA",
          "type": "address"
        },
        {
          "internalType": "address",
          "name": "tokenB",
          "type": "address"
        }
      ],
      "name": "getTotalLiquidityAdded",
      "outputs": [
        {
          "internalType": "uint256",
          "name": "liquidity",
          "type": "uint256"
        }
      ],
      "stateMutability": "view",
      "type": "function"
    },
    {
      "inputs": [],
      "name": "owner",
      "outputs": [
        {
          "internalType": "address",
          "name": "",
          "type": "address"
        }
      ],
      "stateMutability": "view",
      "type": "function"
    },
    {
      "inputs": [],
      "name": "poolManager",
      "outputs": [
        {
          "internalType": "contract IPoolManager",
          "name": "",
          "type": "address"
        }
      ],
      "stateMutability": "view",
      "type": "function"
    },
    {
      "inputs": [
        {
          "internalType": "address",
          "name": "token",
          "type": "address"
        },
        {
          "internalType": "uint256",
          "name": "amount",
          "type": "uint256"
        },
        {
          "internalType": "address",
          "name": "to",
          "type": "address"
        }
      ],
      "name": "recoverTokens",
      "outputs": [],
      "stateMutability": "nonpayable",
      "type": "function"
    },
    {
      "inputs": [
        {
          "internalType": "address",
          "name": "tokenA",
          "type": "address"
        },
        {
          "internalType": "address",
          "name": "tokenB",
          "type": "address"
        },
        {
          "internalType": "uint256",
          "name": "liquidity",
          "type": "uint256"
        },
        {
          "internalType": "uint256",
          "name": "amountAMin",
          "type": "uint256"
        },
        {
          "internalType": "uint256",
          "name": "amountBMin",
          "type": "uint256"
        },
        {
          "internalType": "address",
          "name": "to",
          "type": "address"
        },
        {
          "internalType": "uint256",
          "name": "deadline",
          "type": "uint256"
        }
      ],
      "name": "removeLiquidity",
      "outputs": [
        {
          "internalType": "uint256",
          "name": "amountA",
          "type": "uint256"
        },
        {
          "internalType": "uint256",
          "name": "amountB",
          "type": "uint256"
        }
      ],
      "stateMutability": "nonpayable",
      "type": "function"
    },
    {
      "inputs": [],
      "name": "renounceOwnership",
      "outputs": [],
      "stateMutability": "nonpayable",
      "type": "function"
    },
    {
      "inputs": [
        {
          "internalType": "address",
          "name": "_poolManager",
          "type": "address"
        }
      ],
      "name": "setPoolManager",
      "outputs": [],
      "stateMutability": "nonpayable",
      "type": "function"
    },
    {
      "inputs": [
        {
          "internalType": "address",
          "name": "_treasury",
          "type": "address"
        }
      ],
      "name": "setTreasury",
      "outputs": [],
      "stateMutability": "nonpayable",
      "type": "function"
    },
    {
      "inputs": [
        {
          "internalType": "address",
          "name": "",
          "type": "address"
        },
        {
          "internalType": "address",
          "name": "",
          "type": "address"
        }
      ],
      "name": "totalLiquidityAdded",
      "outputs": [
        {
          "internalType": "uint256",
          "name": "",
          "type": "uint256"
        }
      ],
      "stateMutability": "view",
      "type": "function"
    },
    {
      "inputs": [
        {
          "internalType": "address",
          "name": "newOwner",
          "type": "address"
        }
      ],
      "name": "transferOwnership",
      "outputs": [],
      "stateMutability": "nonpayable",
      "type": "function"
    },
    {
      "inputs": [],
      "name": "treasury",
      "outputs": [
        {
          "internalType": "address",
          "name": "",
          "type": "address"
        }
      ],
      "stateMutability": "view",
      "type": "function"
    },
    {
      "inputs": [],
      "name": "uniswapRouter",
      "outputs": [
        {
          "internalType": "contract IUniswapV2Router02",
          "name": "",
          "type": "address"
        }
      ],
      "stateMutability": "view",
      "type": "function"
    },
    {
      "inputs": [
        {
          "internalType": "address",
          "name": "lpToken",
          "type": "address"
        },
        {
          "internalType": "uint256",
          "name": "amount",
          "type": "uint256"
        },
        {
          "internalType": "address",
          "name": "to",
          "type": "address"
        }
      ],
      "name": "withdrawLP",
      "outputs": [],
      "stateMutability": "nonpayable",
      "type": "function"
    },
    {
      "stateMutability": "payable",
      "type": "receive"
    }
  ],
  "bytecode": "0x60a03461013e57601f61173438819003918201601f19168301916001600160401b0383118484101761014357808492604094855283398101031261013e57610052602061004b83610159565b9201610159565b33156101285760008054336001600160a01b0319821681178355604051949290916001600160a01b0316907f8be0079c531659141344cd1fd0a4f28419497f9722a3daafe3b4186f6b6457e09080a3600180556001600160a01b0316908115610117576001600160a01b031690811561010657608052600380546001600160a01b0319169190911790556115c6908161016e823960805181818161047b0152818161089501528181610bff0152610ed60152f35b6302979eb960e31b60005260046000fd5b63466d7fef60e01b60005260046000fd5b631e4fbdf760e01b600052600060045260246000fd5b600080fd5b634e487b7160e01b600052604160045260246000fd5b51906001600160a01b038216820361013e5756fe6080604052600436101561001b575b361561001957600080fd5b005b6000803560e01c80632379021614610dd157806339c34dac14610b025780633aecd0e314610d3957806361b0a56e14610cb157806361d027b314610c88578063715018a614610c2e578063735de9f714610be95780637aef671514610b7e5780638da5cb5b14610b5757806398780c6514610b02578063baa2abde1461080c578063d91db0fe1461034f578063dc4c90d314610326578063e50e6371146101e3578063f0f442601461015f5763f2fde38b146100d7575061000e565b3461015c57602036600319011261015c576100f061113f565b6100f86111dd565b6001600160a01b031680156101485781546001600160a01b03198116821783556001600160a01b03167f8be0079c531659141344cd1fd0a4f28419497f9722a3daafe3b4186f6b6457e08380a380f35b631e4fbdf760e01b82526004829052602482fd5b80fd5b503461015c57602036600319011261015c5761017961113f565b6101816111dd565b6001600160a01b031680156101d457600380546001600160a01b0319811683179091556001600160a01b03167f4ab5be82436d353e61ca18726e984e561f5c1cc7c6d38b29d2553c790434705a8380a380f35b6302979eb960e31b8252600482fd5b503461015c576101f23661116b565b90916101fc6111dd565b610204611206565b6001600160a01b031690808215610317578315610308576001600160a01b0316156102f6575b6040516370a0823160e01b8152306004820152602081602481865afa80156102eb57849186916102b1575b50106102a25760208161028a857f46c9d02f541cb3972cc637f4a89baca03def29273b332641bfbe5daa588a45af9486611228565b6040519485526001600160a01b031693a36001805580f35b631e9acf1760e31b8452600484fd5b9150506020813d6020116102e3575b816102cd602093836111a5565b810103126102de5783905138610255565b600080fd5b3d91506102c0565b6040513d87823e3d90fd5b506003546001600160a01b031661022a565b63162908e360e11b8552600485fd5b63c1ab6dc160e01b8552600485fd5b503461015c578060031936011261015c576002546040516001600160a01b039091168152602090f35b503461015c5736600319016101408112610808576101001361015c5761010435610124356001600160a01b038116908190036108045761038d6111dd565b610395611206565b600435906001600160a01b03821680830361068257801580156107e3575b6103175760443593841580156107d9575b6107ca5760e435914283106107bb5760c4356001600160a01b0381168082036105ed576107b557506003546001600160a01b0316945b6040516370a0823160e01b8152306004820152602081602481865afa80156107aa5788918a91610775575b5010610766576024356001600160a01b03811693909190848303610673576040516370a0823160e01b815230600482015297602089602481895afa98891561075b578b99610727575b50606435809910610718577f00000000000000000000000000000000000000000000000000000000000000006001600160a01b0316986104af8b8b88611324565b6104ba818b89611324565b6040519a62e8e33760e81b8c528660048d01528760248d015260448c015260648b015260843560848b015260a43560a48b015260018060a01b0316958660c48b015260e48a0152606089610104818d8c5af196871561070d578a988b9a8c996106c4575b506105339061052d818861128a565b8761128a565b8a91858c52600460205260408c208760005260205260406000208054908a82018092116106b057558b90801515806106a7575b80610693575b6105f1575b509050506105ed57976105e99697985050507fa7c0bc175494aac705fdccdb501213f94fb9a6f1dd9be0b3488298cb2dc16088604051806105c5878b8b846040919493926060820195825260208201520152565b0390a460018055604051938493846040919493926060820195825260208201520152565b0390f35b8880fd5b9092508291861490811561068c578a915b15610686578b5b6002546001600160a01b0316803b1561068257604051630612045560e41b81526004810193909352602483019390935260448201529082908290606490829084905af180156106775761065e575b8190610571565b81610668916111a5565b610673578938610657565b8980fd5b6040513d84823e3d90fd5b8480fd5b8a610609565b8b91610602565b506002546001600160a01b0316151561056c565b50821515610566565b634e487b7160e01b8e52601160045260248efd5b9950975098506060883d606011610705575b816106e3606093836111a5565b8101031261067357875198610533604060208b01519a01519a999a989061051e565b3d91506106d6565b6040513d8c823e3d90fd5b631e9acf1760e31b8b5260048bfd5b9098506020813d602011610753575b81610743602093836111a5565b810103126102de5751973861046e565b3d9150610736565b6040513d8d823e3d90fd5b631e9acf1760e31b8852600488fd5b9150506020813d6020116107a2575b81610791602093836111a5565b810103126102de5787905138610425565b3d9150610784565b6040513d8b823e3d90fd5b946103fa565b631ab7da6b60e01b8752600487fd5b63162908e360e11b8652600486fd5b50606435156103c4565b506024356001600160a01b038116908181036108005750156103b3565b8680fd5b8280fd5b5080fd5b503461015c5760e036600319011261015c5761082661113f565b9061082f611155565b60a4356044356001600160a01b0382168083036106825760c435926108526111dd565b61085a611206565b916001600160a01b0387169182158015610af1575b610a58578115610ae25715610acf575b428410610ac05760405163c45a015560e01b81527f00000000000000000000000000000000000000000000000000000000000000006001600160a01b0316976020826004818c5afa918215610ab5576109139260209289928b92610a96575b5060405163e6a4390560e01b81526001600160a01b039182166004820152921660248301529092839190829081906044820190565b03916001600160a01b03165afa908115610a4d578791610a67575b506001600160a01b03168015610a5857610949828983611324565b60405195635d5155ef60e11b875283600488015260018060a01b0316938460248801528260448801526064356064880152608435608488015260018060a01b0316948560a488015260c487015260408660e4818a8c5af1958615610a4d57878097610a08575b50507faa29d8bbadb22be3bb6dbe493ae8a0f5b6bba22ed4da0ab6c4808bab559de835916109e0604099899361128a565b8851908152602081019190915260408101869052606090a46001805582519182526020820152f35b9196509796506040883d604011610a45575b81610a27604093836111a5565b8101031261015c5750865160209097015195969594816109e06109af565b3d9150610a1a565b6040513d89823e3d90fd5b63c1ab6dc160e01b8752600487fd5b610a89915060203d602011610a8f575b610a8181836111a5565b81019061126b565b3861092e565b503d610a77565b610aae919250843d8611610a8f57610a8181836111a5565b90386108de565b6040513d8a823e3d90fd5b631ab7da6b60e01b8652600486fd5b6003546001600160a01b0316925061087f565b63162908e360e11b8752600487fd5b506001600160a01b0386161561086f565b503461015c57604036600319011261015c576040610b1e61113f565b91610b27611155565b9260018060a01b031681526004602052209060018060a01b03166000526020526020604060002054604051908152f35b503461015c578060031936011261015c57546040516001600160a01b039091168152602090f35b503461015c57602036600319011261015c57610b9861113f565b610ba06111dd565b600280546001600160a01b039283166001600160a01b0319821681179092559091167f98ea7e41f981415a7f25f05c01f54351c0524b978d01a0446d0ff3bb92840fb78380a380f35b503461015c578060031936011261015c576040517f00000000000000000000000000000000000000000000000000000000000000006001600160a01b03168152602090f35b503461015c578060031936011261015c57610c476111dd565b80546001600160a01b03198116825581906001600160a01b03167f8be0079c531659141344cd1fd0a4f28419497f9722a3daafe3b4186f6b6457e08280a380f35b503461015c578060031936011261015c576003546040516001600160a01b039091168152602090f35b503461015c57610cc03661116b565b9091610cca6111dd565b610cd2611206565b6001600160a01b031690808215610317578315610308576001600160a01b031615610d27575b60208161028a857f1d2f361398f0cd1eeefa9bd2e5d156e421a3dac8bafb57871aa221c6676631399486611228565b506003546001600160a01b0316610cf8565b503461015c57602036600319011261015c5760249060206001600160a01b03610d6061113f565b16604051938480926370a0823160e01b82523060048301525afa908115610dc55790610d92575b602090604051908152f35b506020813d602011610dbd575b81610dac602093836111a5565b810103126102de5760209051610d87565b3d9150610d9f565b604051903d90823e3d90fd5b503461015c5761010036600319011261015c57610dec6111dd565b610df4611206565b6004356001600160a01b0381168082036108045780158015611122575b611113576044359182158015611109575b6110fa5760e4354281106110eb5760c4356001600160a01b038116808203610800576110e557506003546001600160a01b0316925b6040516370a0823160e01b8152306004820152602081602481855afa8015610a4d57869188916110b0575b50106110a1576024356001600160a01b0381169190828103611052576040516370a0823160e01b815230600482015295602087602481875afa9687156107aa57899761106d575b5060643580971061105e577f00000000000000000000000000000000000000000000000000000000000000006001600160a01b031696610f0a898986611324565b610f15818987611324565b6040519862e8e33760e81b8a528460048b01528560248b015260448a01526064890152608435608489015260a43560a489015260018060a01b0316938460c489015260e4880152606087610104818b8a5af1948515610ab557889689988a97611011575b50610f8e90610f88818661128a565b8561128a565b828952600460205260408920848a5260205260408920988954878101809111610ffd576105e998999a555050507fa7c0bc175494aac705fdccdb501213f94fb9a6f1dd9be0b3488298cb2dc16088604051806105c5878b8b846040919493926060820195825260208201520152565b634e487b7160e01b82526011600452602482fd5b9750955096506060863d606011611056575b81611030606093836111a5565b8101031261105257855196610f8e604060208901519801519897989690610f79565b8780fd5b3d9150611023565b631e9acf1760e31b8952600489fd5b9096506020813d602011611099575b81611089602093836111a5565b810103126105ed57519538610ec9565b3d915061107c565b631e9acf1760e31b8652600486fd5b9150506020813d6020116110dd575b816110cc602093836111a5565b810103126108005785905138610e82565b3d91506110bf565b92610e57565b631ab7da6b60e01b8552600485fd5b63162908e360e11b8452600484fd5b5060643515610e22565b63c1ab6dc160e01b8352600483fd5b506024356001600160a01b03811690818103610682575015610e11565b600435906001600160a01b03821682036102de57565b602435906001600160a01b03821682036102de57565b60609060031901126102de576004356001600160a01b03811681036102de5790602435906044356001600160a01b03811681036102de5790565b90601f8019910116810190811067ffffffffffffffff8211176111c757604052565b634e487b7160e01b600052604160045260246000fd5b6000546001600160a01b031633036111f157565b63118cdaa760e01b6000523360045260246000fd5b600260015414611217576002600155565b633ee5aeb560e01b60005260046000fd5b60405163a9059cbb60e01b60208201526001600160a01b03929092166024830152604480830193909352918152611269916112646064836111a5565b611486565b565b908160209103126102de57516001600160a01b03811681036102de5790565b604051636eb1769f60e11b81523060048201526001600160a01b0383166024820152909190602081806044810103816001600160a01b0387165afa908115611318576000916112e6575b506112dd575050565b611269916114e1565b90506020813d602011611310575b81611301602093836111a5565b810103126102de5751386112d4565b3d91506112f4565b6040513d6000823e3d90fd5b604051636eb1769f60e11b81523060048201526001600160a01b038381166024830152929392821690602081604481855afa90811561131857600091611454575b50611445575b82611377575b50505050565b60405163095ea7b360e01b60208083019182526001600160a01b03871660248401526044808401969096529482529093906000906113b66064876111a5565b85519082865af1903d6000519083611426575b505050156113d8575b80611371565b60405163095ea7b360e01b60208201526001600160a01b0390931660248401526000604480850191909152835261141e92611264906114186064826111a5565b82611486565b3880806113d2565b9192509061143b57503b15155b3880806113c9565b6001915014611433565b61144f84836114e1565b61136b565b90506020813d60201161147e575b8161146f602093836111a5565b810103126102de575138611365565b3d9150611462565b906000602091828151910182855af115611318576000513d6114d857506001600160a01b0381163b155b6114b75750565b635274afe760e01b60009081526001600160a01b0391909116600452602490fd5b600114156114b0565b60405190602060008184019463095ea7b360e01b865260018060a01b0316948560248601528160448601526044855261151b6064866111a5565b84519082855af16000513d8261156b575b50501561153857505050565b611264611269936040519063095ea7b360e01b6020830152602482015260006044820152604481526114186064826111a5565b90915061158857506001600160a01b0381163b15155b388061152c565b60011461158156fea2646970667358221220014ca7b5a8ea2793b33b0ace45ef800a227d91beb413b4287908b8bee8704d4664736f6c634300081c0033",
  "linkReferences": {},
  "deployedLinkReferences": {}
}