{
  "_format": "hh-sol-artifact-1",
  "contractName": "PoolManager",
  "sourceName": "contracts/PoolManager.sol",
  "abi": [
    {
      "inputs": [
        {
          "internalType": "address",
          "name": "_uniswapRouter",
          "type": "address"
        }
      ],
      "stateMutability": "nonpayable",
      "type": "constructor"
    },
    {
      "inputs": [],
      "name": "CannotWithdrawStakedTokens",
      "type": "error"
    },
    {
      "inputs": [],
      "name": "EmptyWeeklyRewards",
      "type": "error"
    },
    {
      "inputs": [],
      "name": "EnforcedPause",
      "type": "error"
    },
    {
      "inputs": [],
      "name": "ExceedsAllocatedRewards",
      "type": "error"
    },
    {
      "inputs": [],
      "name": "ExceedsAllocation",
      "type": "error"
    },
    {
      "inputs": [],
      "name": "ExpectedPause",
      "type": "error"
    },
    {
      "inputs": [],
      "name": "InsufficientECMForLiquidityTransfer",
      "type": "error"
    },
    {
      "inputs": [],
      "name": "InsufficientLiquidity",
      "type": "error"
    },
    {
      "inputs": [],
      "name": "InsufficientLiquidityReserve",
      "type": "error"
    },
    {
      "inputs": [],
      "name": "InsufficientPoolECM",
      "type": "error"
    },
    {
      "inputs": [],
      "name": "InsufficientRewardsForRate",
      "type": "error"
    },
    {
      "inputs": [],
      "name": "InvalidAddress",
      "type": "error"
    },
    {
      "inputs": [],
      "name": "InvalidAmount",
      "type": "error"
    },
    {
      "inputs": [],
      "name": "InvalidDuration",
      "type": "error"
    },
    {
      "inputs": [],
      "name": "InvalidPenaltyBps",
      "type": "error"
    },
    {
      "inputs": [],
      "name": "InvalidRewardRate",
      "type": "error"
    },
    {
      "inputs": [],
      "name": "InvalidRewards",
      "type": "error"
    },
    {
      "inputs": [],
      "name": "InvalidStakeDuration",
      "type": "error"
    },
    {
      "inputs": [],
      "name": "InvalidStrategy",
      "type": "error"
    },
    {
      "inputs": [],
      "name": "MinPurchaseNotMet",
      "type": "error"
    },
    {
      "inputs": [],
      "name": "NotAuthorizedLiquidityManager",
      "type": "error"
    },
    {
      "inputs": [],
      "name": "NotAuthorizedVestingManager",
      "type": "error"
    },
    {
      "inputs": [],
      "name": "NotStaked",
      "type": "error"
    },
    {
      "inputs": [
        {
          "internalType": "address",
          "name": "owner",
          "type": "address"
        }
      ],
      "name": "OwnableInvalidOwner",
      "type": "error"
    },
    {
      "inputs": [
        {
          "internalType": "address",
          "name": "account",
          "type": "address"
        }
      ],
      "name": "OwnableUnauthorizedAccount",
      "type": "error"
    },
    {
      "inputs": [],
      "name": "PoolDoesNotExist",
      "type": "error"
    },
    {
      "inputs": [],
      "name": "PoolNotActive",
      "type": "error"
    },
    {
      "inputs": [],
      "name": "ReentrancyGuardReentrantCall",
      "type": "error"
    },
    {
      "inputs": [
        {
          "internalType": "address",
          "name": "token",
          "type": "address"
        }
      ],
      "name": "SafeERC20FailedOperation",
      "type": "error"
    },
    {
      "inputs": [],
      "name": "SlippageExceeded",
      "type": "error"
    },
    {
      "inputs": [],
      "name": "UnsustainableRewardRate",
      "type": "error"
    },
    {
      "inputs": [],
      "name": "VestingFailed",
      "type": "error"
    },
    {
      "anonymous": false,
      "inputs": [
        {
          "indexed": true,
          "internalType": "uint256",
          "name": "poolId",
          "type": "uint256"
        },
        {
          "indexed": false,
          "internalType": "uint256[]",
          "name": "durations",
          "type": "uint256[]"
        }
      ],
      "name": "AllowedStakeDurationsUpdated",
      "type": "event"
    },
    {
      "anonymous": false,
      "inputs": [
        {
          "indexed": true,
          "internalType": "uint256",
          "name": "poolId",
          "type": "uint256"
        },
        {
          "indexed": true,
          "internalType": "address",
          "name": "user",
          "type": "address"
        },
        {
          "indexed": false,
          "internalType": "uint256",
          "name": "ecmAmount",
          "type": "uint256"
        },
        {
          "indexed": false,
          "internalType": "uint256",
          "name": "usdtPaid",
          "type": "uint256"
        },
        {
          "indexed": false,
          "internalType": "uint256",
          "name": "stakeDuration",
          "type": "uint256"
        },
        {
          "indexed": false,
          "internalType": "address",
          "name": "referrer",
          "type": "address"
        },
        {
          "indexed": false,
          "internalType": "bytes32",
          "name": "codeHash",
          "type": "bytes32"
        }
      ],
      "name": "BoughtAndStaked",
      "type": "event"
    },
    {
      "anonymous": false,
      "inputs": [
        {
          "indexed": true,
          "internalType": "uint256",
          "name": "poolId",
          "type": "uint256"
        },
        {
          "indexed": false,
          "internalType": "uint256",
          "name": "amount",
          "type": "uint256"
        }
      ],
      "name": "ECMAllocatedForRewards",
      "type": "event"
    },
    {
      "anonymous": false,
      "inputs": [
        {
          "indexed": true,
          "internalType": "uint256",
          "name": "poolId",
          "type": "uint256"
        },
        {
          "indexed": false,
          "internalType": "uint256",
          "name": "amount",
          "type": "uint256"
        }
      ],
      "name": "ECMAllocatedForSale",
      "type": "event"
    },
    {
      "anonymous": false,
      "inputs": [
        {
          "indexed": true,
          "internalType": "uint256",
          "name": "poolId",
          "type": "uint256"
        },
        {
          "indexed": true,
          "internalType": "address",
          "name": "user",
          "type": "address"
        },
        {
          "indexed": false,
          "internalType": "uint256",
          "name": "ecmAmount",
          "type": "uint256"
        },
        {
          "indexed": false,
          "internalType": "uint256",
          "name": "stakeDuration",
          "type": "uint256"
        }
      ],
      "name": "ECMStaked",
      "type": "event"
    },
    {
      "anonymous": false,
      "inputs": [
        {
          "indexed": true,
          "internalType": "uint256",
          "name": "poolId",
          "type": "uint256"
        },
        {
          "indexed": true,
          "internalType": "address",
          "name": "user",
          "type": "address"
        },
        {
          "indexed": false,
          "internalType": "uint256",
          "name": "principalReturned",
          "type": "uint256"
        },
        {
          "indexed": false,
          "internalType": "uint256",
          "name": "slashed",
          "type": "uint256"
        },
        {
          "indexed": false,
          "internalType": "uint256",
          "name": "rewardsPaid",
          "type": "uint256"
        }
      ],
      "name": "EarlyUnstaked",
      "type": "event"
    },
    {
      "anonymous": false,
      "inputs": [
        {
          "indexed": true,
          "internalType": "uint256",
          "name": "poolId",
          "type": "uint256"
        },
        {
          "indexed": false,
          "internalType": "uint256",
          "name": "rewardRatePerSecond",
          "type": "uint256"
        }
      ],
      "name": "LinearRewardRateSet",
      "type": "event"
    },
    {
      "anonymous": false,
      "inputs": [
        {
          "indexed": true,
          "internalType": "uint256",
          "name": "poolId",
          "type": "uint256"
        },
        {
          "indexed": false,
          "internalType": "uint256",
          "name": "ecmAmount",
          "type": "uint256"
        },
        {
          "indexed": false,
          "internalType": "uint256",
          "name": "usdtAmount",
          "type": "uint256"
        }
      ],
      "name": "LiquidityAddedToUniswap",
      "type": "event"
    },
    {
      "anonymous": false,
      "inputs": [
        {
          "indexed": true,
          "internalType": "address",
          "name": "manager",
          "type": "address"
        }
      ],
      "name": "LiquidityManagerAuthorized",
      "type": "event"
    },
    {
      "anonymous": false,
      "inputs": [
        {
          "indexed": true,
          "internalType": "address",
          "name": "manager",
          "type": "address"
        }
      ],
      "name": "LiquidityManagerDeauthorized",
      "type": "event"
    },
    {
      "anonymous": false,
      "inputs": [
        {
          "indexed": true,
          "internalType": "uint256",
          "name": "poolId",
          "type": "uint256"
        },
        {
          "indexed": false,
          "internalType": "uint256",
          "name": "amount",
          "type": "uint256"
        }
      ],
      "name": "LiquidityReserveSet",
      "type": "event"
    },
    {
      "anonymous": false,
      "inputs": [
        {
          "indexed": true,
          "internalType": "uint256",
          "name": "poolId",
          "type": "uint256"
        },
        {
          "indexed": false,
          "internalType": "address",
          "name": "liquidityManager",
          "type": "address"
        },
        {
          "indexed": false,
          "internalType": "uint256",
          "name": "ecmAmount",
          "type": "uint256"
        },
        {
          "indexed": false,
          "internalType": "uint256",
          "name": "usdtAmount",
          "type": "uint256"
        }
      ],
      "name": "LiquidityTransferToManager",
      "type": "event"
    },
    {
      "anonymous": false,
      "inputs": [
        {
          "indexed": true,
          "internalType": "uint256",
          "name": "poolId",
          "type": "uint256"
        },
        {
          "indexed": false,
          "internalType": "uint256[]",
          "name": "monthlyAmounts",
          "type": "uint256[]"
        }
      ],
      "name": "MonthlyRewardsSet",
      "type": "event"
    },
    {
      "anonymous": false,
      "inputs": [
        {
          "indexed": true,
          "internalType": "uint256",
          "name": "poolId",
          "type": "uint256"
        },
        {
          "indexed": false,
          "internalType": "uint256",
          "name": "ecmAmount",
          "type": "uint256"
        }
      ],
      "name": "OwedLiquidityRefilled",
      "type": "event"
    },
    {
      "anonymous": false,
      "inputs": [
        {
          "indexed": true,
          "internalType": "address",
          "name": "previousOwner",
          "type": "address"
        },
        {
          "indexed": true,
          "internalType": "address",
          "name": "newOwner",
          "type": "address"
        }
      ],
      "name": "OwnershipTransferred",
      "type": "event"
    },
    {
      "anonymous": false,
      "inputs": [
        {
          "indexed": false,
          "internalType": "address",
          "name": "account",
          "type": "address"
        }
      ],
      "name": "Paused",
      "type": "event"
    },
    {
      "anonymous": false,
      "inputs": [
        {
          "indexed": true,
          "internalType": "uint256",
          "name": "poolId",
          "type": "uint256"
        },
        {
          "indexed": false,
          "internalType": "uint256",
          "name": "penaltyBps",
          "type": "uint256"
        },
        {
          "indexed": false,
          "internalType": "address",
          "name": "penaltyReceiver",
          "type": "address"
        }
      ],
      "name": "PenaltyConfigUpdated",
      "type": "event"
    },
    {
      "anonymous": false,
      "inputs": [
        {
          "indexed": true,
          "internalType": "uint256",
          "name": "poolId",
          "type": "uint256"
        },
        {
          "indexed": false,
          "internalType": "bool",
          "name": "active",
          "type": "bool"
        }
      ],
      "name": "PoolActiveStatusChanged",
      "type": "event"
    },
    {
      "anonymous": false,
      "inputs": [
        {
          "indexed": true,
          "internalType": "uint256",
          "name": "poolId",
          "type": "uint256"
        },
        {
          "indexed": true,
          "internalType": "address",
          "name": "ecm",
          "type": "address"
        },
        {
          "indexed": true,
          "internalType": "address",
          "name": "usdt",
          "type": "address"
        },
        {
          "indexed": false,
          "internalType": "address",
          "name": "pair",
          "type": "address"
        },
        {
          "indexed": false,
          "internalType": "enum PoolManager.RewardStrategy",
          "name": "poolType",
          "type": "uint8"
        }
      ],
      "name": "PoolCreated",
      "type": "event"
    },
    {
      "anonymous": false,
      "inputs": [
        {
          "indexed": true,
          "internalType": "address",
          "name": "referralModule",
          "type": "address"
        }
      ],
      "name": "ReferralModuleSet",
      "type": "event"
    },
    {
      "anonymous": false,
      "inputs": [
        {
          "indexed": true,
          "internalType": "address",
          "name": "referralVoucher",
          "type": "address"
        }
      ],
      "name": "ReferralVoucherSet",
      "type": "event"
    },
    {
      "anonymous": false,
      "inputs": [
        {
          "indexed": true,
          "internalType": "uint256",
          "name": "poolId",
          "type": "uint256"
        },
        {
          "indexed": true,
          "internalType": "address",
          "name": "user",
          "type": "address"
        },
        {
          "indexed": false,
          "internalType": "uint256",
          "name": "amount",
          "type": "uint256"
        },
        {
          "indexed": false,
          "internalType": "bool",
          "name": "vested",
          "type": "bool"
        }
      ],
      "name": "RewardsClaimed",
      "type": "event"
    },
    {
      "anonymous": false,
      "inputs": [
        {
          "indexed": true,
          "internalType": "uint256",
          "name": "poolId",
          "type": "uint256"
        },
        {
          "indexed": true,
          "internalType": "address",
          "name": "user",
          "type": "address"
        },
        {
          "indexed": false,
          "internalType": "uint256",
          "name": "amount",
          "type": "uint256"
        },
        {
          "indexed": false,
          "internalType": "uint256",
          "name": "vestingId",
          "type": "uint256"
        },
        {
          "indexed": false,
          "internalType": "uint256",
          "name": "duration",
          "type": "uint256"
        }
      ],
      "name": "RewardsVested",
      "type": "event"
    },
    {
      "anonymous": false,
      "inputs": [
        {
          "indexed": false,
          "internalType": "address",
          "name": "account",
          "type": "address"
        }
      ],
      "name": "Unpaused",
      "type": "event"
    },
    {
      "anonymous": false,
      "inputs": [
        {
          "indexed": true,
          "internalType": "uint256",
          "name": "poolId",
          "type": "uint256"
        },
        {
          "indexed": true,
          "internalType": "address",
          "name": "user",
          "type": "address"
        },
        {
          "indexed": false,
          "internalType": "uint256",
          "name": "principalReturned",
          "type": "uint256"
        },
        {
          "indexed": false,
          "internalType": "uint256",
          "name": "rewardsPaid",
          "type": "uint256"
        }
      ],
      "name": "Unstaked",
      "type": "event"
    },
    {
      "anonymous": false,
      "inputs": [
        {
          "indexed": true,
          "internalType": "uint256",
          "name": "poolId",
          "type": "uint256"
        },
        {
          "indexed": false,
          "internalType": "uint256",
          "name": "vestingDuration",
          "type": "uint256"
        },
        {
          "indexed": false,
          "internalType": "bool",
          "name": "vestByDefault",
          "type": "bool"
        }
      ],
      "name": "VestingConfigUpdated",
      "type": "event"
    },
    {
      "anonymous": false,
      "inputs": [
        {
          "indexed": false,
          "internalType": "address",
          "name": "vestingManager",
          "type": "address"
        }
      ],
      "name": "VestingManagerSet",
      "type": "event"
    },
    {
      "anonymous": false,
      "inputs": [
        {
          "indexed": true,
          "internalType": "uint256",
          "name": "poolId",
          "type": "uint256"
        },
        {
          "indexed": false,
          "internalType": "uint256[]",
          "name": "weeklyAmounts",
          "type": "uint256[]"
        }
      ],
      "name": "WeeklyRewardsSet",
      "type": "event"
    },
    {
      "inputs": [],
      "name": "DEFAULT_PENALTY_BPS",
      "outputs": [
        {
          "internalType": "uint256",
          "name": "",
          "type": "uint256"
        }
      ],
      "stateMutability": "view",
      "type": "function"
    },
    {
      "inputs": [],
      "name": "MAX_BPS",
      "outputs": [
        {
          "internalType": "uint256",
          "name": "",
          "type": "uint256"
        }
      ],
      "stateMutability": "view",
      "type": "function"
    },
    {
      "inputs": [],
      "name": "MIN_PURCHASE_ECM",
      "outputs": [
        {
          "internalType": "uint256",
          "name": "",
          "type": "uint256"
        }
      ],
      "stateMutability": "view",
      "type": "function"
    },
    {
      "inputs": [],
      "name": "PRECISION",
      "outputs": [
        {
          "internalType": "uint256",
          "name": "",
          "type": "uint256"
        }
      ],
      "stateMutability": "view",
      "type": "function"
    },
    {
      "inputs": [],
      "name": "UNISWAP_ROUTER",
      "outputs": [
        {
          "internalType": "contract IUniswapV2Router02",
          "name": "",
          "type": "address"
        }
      ],
      "stateMutability": "view",
      "type": "function"
    },
    {
      "inputs": [],
      "name": "WEEKS_IN_YEAR",
      "outputs": [
        {
          "internalType": "uint256",
          "name": "",
          "type": "uint256"
        }
      ],
      "stateMutability": "view",
      "type": "function"
    },
    {
      "inputs": [],
      "name": "WEEK_SECONDS",
      "outputs": [
        {
          "internalType": "uint256",
          "name": "",
          "type": "uint256"
        }
      ],
      "stateMutability": "view",
      "type": "function"
    },
    {
      "inputs": [
        {
          "internalType": "address",
          "name": "manager",
          "type": "address"
        }
      ],
      "name": "addAuthorizedLiquidityManager",
      "outputs": [],
      "stateMutability": "nonpayable",
      "type": "function"
    },
    {
      "inputs": [
        {
          "internalType": "uint256",
          "name": "poolId",
          "type": "uint256"
        },
        {
          "internalType": "uint256",
          "name": "amount",
          "type": "uint256"
        }
      ],
      "name": "allocateForRewards",
      "outputs": [],
      "stateMutability": "nonpayable",
      "type": "function"
    },
    {
      "inputs": [
        {
          "internalType": "uint256",
          "name": "poolId",
          "type": "uint256"
        },
        {
          "internalType": "uint256",
          "name": "amount",
          "type": "uint256"
        }
      ],
      "name": "allocateForSale",
      "outputs": [],
      "stateMutability": "nonpayable",
      "type": "function"
    },
    {
      "inputs": [
        {
          "internalType": "address",
          "name": "manager",
          "type": "address"
        }
      ],
      "name": "authorizedLiquidityManagers",
      "outputs": [
        {
          "internalType": "bool",
          "name": "authorized",
          "type": "bool"
        }
      ],
      "stateMutability": "view",
      "type": "function"
    },
    {
      "inputs": [
        {
          "internalType": "uint256",
          "name": "poolId",
          "type": "uint256"
        },
        {
          "internalType": "uint256",
          "name": "maxUsdtAmount",
          "type": "uint256"
        },
        {
          "internalType": "uint256",
          "name": "selectedStakeDuration",
          "type": "uint256"
        },
        {
          "components": [
            {
              "internalType": "bytes32",
              "name": "vid",
              "type": "bytes32"
            },
            {
              "internalType": "bytes32",
              "name": "codeHash",
              "type": "bytes32"
            },
            {
              "internalType": "address",
              "name": "owner",
              "type": "address"
            },
            {
              "internalType": "uint16",
              "name": "directBps",
              "type": "uint16"
            },
            {
              "internalType": "bool",
              "name": "transferOnUse",
              "type": "bool"
            },
            {
              "internalType": "uint64",
              "name": "expiry",
              "type": "uint64"
            },
            {
              "internalType": "uint32",
              "name": "maxUses",
              "type": "uint32"
            },
            {
              "internalType": "uint256",
              "name": "nonce",
              "type": "uint256"
            }
          ],
          "internalType": "struct IReferralVoucher.VoucherInput",
          "name": "voucherInput",
          "type": "tuple"
        },
        {
          "internalType": "bytes",
          "name": "voucherSignature",
          "type": "bytes"
        }
      ],
      "name": "buyAndStake",
      "outputs": [],
      "stateMutability": "nonpayable",
      "type": "function"
    },
    {
      "inputs": [
        {
          "internalType": "uint256",
          "name": "poolId",
          "type": "uint256"
        },
        {
          "internalType": "uint256",
          "name": "exactEcmAmount",
          "type": "uint256"
        },
        {
          "internalType": "uint256",
          "name": "maxUsdtAmount",
          "type": "uint256"
        },
        {
          "internalType": "uint256",
          "name": "selectedStakeDuration",
          "type": "uint256"
        },
        {
          "components": [
            {
              "internalType": "bytes32",
              "name": "vid",
              "type": "bytes32"
            },
            {
              "internalType": "bytes32",
              "name": "codeHash",
              "type": "bytes32"
            },
            {
              "internalType": "address",
              "name": "owner",
              "type": "address"
            },
            {
              "internalType": "uint16",
              "name": "directBps",
              "type": "uint16"
            },
            {
              "internalType": "bool",
              "name": "transferOnUse",
              "type": "bool"
            },
            {
              "internalType": "uint64",
              "name": "expiry",
              "type": "uint64"
            },
            {
              "internalType": "uint32",
              "name": "maxUses",
              "type": "uint32"
            },
            {
              "internalType": "uint256",
              "name": "nonce",
              "type": "uint256"
            }
          ],
          "internalType": "struct IReferralVoucher.VoucherInput",
          "name": "voucherInput",
          "type": "tuple"
        },
        {
          "internalType": "bytes",
          "name": "voucherSignature",
          "type": "bytes"
        }
      ],
      "name": "buyExactECMAndStake",
      "outputs": [],
      "stateMutability": "nonpayable",
      "type": "function"
    },
    {
      "inputs": [
        {
          "internalType": "uint256",
          "name": "poolId",
          "type": "uint256"
        },
        {
          "internalType": "uint256",
          "name": "periodsToProject",
          "type": "uint256"
        }
      ],
      "name": "calculateAPR",
      "outputs": [
        {
          "internalType": "uint256",
          "name": "apr",
          "type": "uint256"
        }
      ],
      "stateMutability": "view",
      "type": "function"
    },
    {
      "inputs": [
        {
          "internalType": "uint256",
          "name": "poolId",
          "type": "uint256"
        },
        {
          "internalType": "address",
          "name": "user",
          "type": "address"
        },
        {
          "internalType": "uint256",
          "name": "durationSeconds",
          "type": "uint256"
        }
      ],
      "name": "calculateExpectedRewards",
      "outputs": [
        {
          "internalType": "uint256",
          "name": "expectedRewards",
          "type": "uint256"
        }
      ],
      "stateMutability": "view",
      "type": "function"
    },
    {
      "inputs": [
        {
          "internalType": "uint256",
          "name": "poolId",
          "type": "uint256"
        },
        {
          "internalType": "address",
          "name": "user",
          "type": "address"
        },
        {
          "internalType": "uint256",
          "name": "durationSeconds",
          "type": "uint256"
        },
        {
          "internalType": "uint256",
          "name": "ecmPriceInUsdt",
          "type": "uint256"
        }
      ],
      "name": "calculateROI",
      "outputs": [
        {
          "internalType": "uint256",
          "name": "roi",
          "type": "uint256"
        }
      ],
      "stateMutability": "view",
      "type": "function"
    },
    {
      "inputs": [
        {
          "internalType": "uint256",
          "name": "poolId",
          "type": "uint256"
        }
      ],
      "name": "calculateRewardDepletionTime",
      "outputs": [
        {
          "internalType": "uint256",
          "name": "depletionTimestamp",
          "type": "uint256"
        },
        {
          "internalType": "uint256",
          "name": "daysRemaining",
          "type": "uint256"
        },
        {
          "internalType": "bool",
          "name": "isInfinite",
          "type": "bool"
        }
      ],
      "stateMutability": "view",
      "type": "function"
    },
    {
      "inputs": [
        {
          "internalType": "uint256",
          "name": "poolId",
          "type": "uint256"
        },
        {
          "internalType": "uint256",
          "name": "ecmPriceInUsdt",
          "type": "uint256"
        }
      ],
      "name": "calculateTVL",
      "outputs": [
        {
          "internalType": "uint256",
          "name": "tvl",
          "type": "uint256"
        }
      ],
      "stateMutability": "view",
      "type": "function"
    },
    {
      "inputs": [
        {
          "internalType": "uint256",
          "name": "poolId",
          "type": "uint256"
        },
        {
          "internalType": "address",
          "name": "user",
          "type": "address"
        }
      ],
      "name": "calculateUnstakePenalty",
      "outputs": [
        {
          "internalType": "bool",
          "name": "willBePenalized",
          "type": "bool"
        },
        {
          "internalType": "uint256",
          "name": "penaltyAmount",
          "type": "uint256"
        },
        {
          "internalType": "uint256",
          "name": "amountReceived",
          "type": "uint256"
        },
        {
          "internalType": "uint256",
          "name": "timeUntilMaturity",
          "type": "uint256"
        }
      ],
      "stateMutability": "view",
      "type": "function"
    },
    {
      "inputs": [
        {
          "internalType": "uint256",
          "name": "poolId",
          "type": "uint256"
        }
      ],
      "name": "calculateUtilizationRate",
      "outputs": [
        {
          "internalType": "uint256",
          "name": "utilizationRate",
          "type": "uint256"
        }
      ],
      "stateMutability": "view",
      "type": "function"
    },
    {
      "inputs": [
        {
          "internalType": "uint256",
          "name": "poolId",
          "type": "uint256"
        }
      ],
      "name": "claimRewards",
      "outputs": [],
      "stateMutability": "nonpayable",
      "type": "function"
    },
    {
      "inputs": [
        {
          "components": [
            {
              "internalType": "address",
              "name": "ecm",
              "type": "address"
            },
            {
              "internalType": "address",
              "name": "usdt",
              "type": "address"
            },
            {
              "internalType": "address",
              "name": "pair",
              "type": "address"
            },
            {
              "internalType": "address",
              "name": "penaltyReceiver",
              "type": "address"
            },
            {
              "internalType": "enum PoolManager.RewardStrategy",
              "name": "rewardStrategy",
              "type": "uint8"
            },
            {
              "internalType": "uint256[]",
              "name": "allowedStakeDurations",
              "type": "uint256[]"
            },
            {
              "internalType": "uint256",
              "name": "maxDuration",
              "type": "uint256"
            },
            {
              "internalType": "uint256",
              "name": "vestingDuration",
              "type": "uint256"
            },
            {
              "internalType": "bool",
              "name": "vestRewardsByDefault",
              "type": "bool"
            },
            {
              "internalType": "uint16",
              "name": "penaltyBps",
              "type": "uint16"
            }
          ],
          "internalType": "struct PoolManager.PoolCreateParams",
          "name": "params",
          "type": "tuple"
        }
      ],
      "name": "createPool",
      "outputs": [
        {
          "internalType": "uint256",
          "name": "poolId",
          "type": "uint256"
        }
      ],
      "stateMutability": "nonpayable",
      "type": "function"
    },
    {
      "inputs": [
        {
          "internalType": "address",
          "name": "token",
          "type": "address"
        },
        {
          "internalType": "uint256",
          "name": "amount",
          "type": "uint256"
        },
        {
          "internalType": "address",
          "name": "to",
          "type": "address"
        }
      ],
      "name": "emergencyRecoverTokens",
      "outputs": [],
      "stateMutability": "nonpayable",
      "type": "function"
    },
    {
      "inputs": [
        {
          "internalType": "uint256",
          "name": "poolId",
          "type": "uint256"
        },
        {
          "internalType": "uint256",
          "name": "usdtAmount",
          "type": "uint256"
        }
      ],
      "name": "estimateECMForUSDT",
      "outputs": [
        {
          "internalType": "uint256",
          "name": "ecmEstimate",
          "type": "uint256"
        }
      ],
      "stateMutability": "view",
      "type": "function"
    },
    {
      "inputs": [
        {
          "internalType": "uint256",
          "name": "poolId",
          "type": "uint256"
        },
        {
          "internalType": "uint256",
          "name": "ecmPriceInUsdt",
          "type": "uint256"
        }
      ],
      "name": "getPoolAnalytics",
      "outputs": [
        {
          "internalType": "uint256",
          "name": "poolAge",
          "type": "uint256"
        },
        {
          "internalType": "uint256",
          "name": "totalUniqueStakers",
          "type": "uint256"
        },
        {
          "internalType": "uint256",
          "name": "totalPenaltiesCollected",
          "type": "uint256"
        },
        {
          "internalType": "uint256",
          "name": "peakTotalStaked",
          "type": "uint256"
        },
        {
          "internalType": "uint256",
          "name": "lifetimeStakeVolume",
          "type": "uint256"
        },
        {
          "internalType": "uint256",
          "name": "lifetimeUnstakeVolume",
          "type": "uint256"
        },
        {
          "internalType": "uint256",
          "name": "currentTVL",
          "type": "uint256"
        }
      ],
      "stateMutability": "view",
      "type": "function"
    },
    {
      "inputs": [
        {
          "internalType": "uint256",
          "name": "poolId",
          "type": "uint256"
        }
      ],
      "name": "getPoolBalanceStatus",
      "outputs": [
        {
          "internalType": "uint256",
          "name": "totalAllocated",
          "type": "uint256"
        },
        {
          "internalType": "uint256",
          "name": "soldToUsers",
          "type": "uint256"
        },
        {
          "internalType": "uint256",
          "name": "currentlyStaked",
          "type": "uint256"
        },
        {
          "internalType": "uint256",
          "name": "movedToLiquidity",
          "type": "uint256"
        },
        {
          "internalType": "uint256",
          "name": "liquidityOwedECM",
          "type": "uint256"
        },
        {
          "internalType": "uint256",
          "name": "addedToUniswap",
          "type": "uint256"
        },
        {
          "internalType": "uint256",
          "name": "vested",
          "type": "uint256"
        },
        {
          "internalType": "uint256",
          "name": "rewardsPaid",
          "type": "uint256"
        },
        {
          "internalType": "uint256",
          "name": "availableInContract",
          "type": "uint256"
        },
        {
          "internalType": "uint256",
          "name": "deficit",
          "type": "uint256"
        }
      ],
      "stateMutability": "view",
      "type": "function"
    },
    {
      "inputs": [
        {
          "internalType": "uint256",
          "name": "poolId",
          "type": "uint256"
        }
      ],
      "name": "getPoolInfo",
      "outputs": [
        {
          "components": [
            {
              "internalType": "uint32",
              "name": "id",
              "type": "uint32"
            },
            {
              "internalType": "bool",
              "name": "active",
              "type": "bool"
            },
            {
              "internalType": "contract IERC20",
              "name": "ecm",
              "type": "address"
            },
            {
              "internalType": "contract IERC20",
              "name": "usdt",
              "type": "address"
            },
            {
              "internalType": "contract IUniswapV2Pair",
              "name": "pair",
              "type": "address"
            },
            {
              "internalType": "uint16",
              "name": "penaltyBps",
              "type": "uint16"
            },
            {
              "internalType": "address",
              "name": "penaltyReceiver",
              "type": "address"
            },
            {
              "internalType": "uint256",
              "name": "allocatedForSale",
              "type": "uint256"
            },
            {
              "internalType": "uint256",
              "name": "allocatedForRewards",
              "type": "uint256"
            },
            {
              "internalType": "uint256",
              "name": "sold",
              "type": "uint256"
            },
            {
              "internalType": "uint256",
              "name": "collectedUSDT",
              "type": "uint256"
            },
            {
              "internalType": "uint256",
              "name": "totalStaked",
              "type": "uint256"
            },
            {
              "internalType": "uint256",
              "name": "accRewardPerShare",
              "type": "uint256"
            },
            {
              "internalType": "uint256",
              "name": "lastRewardTime",
              "type": "uint256"
            },
            {
              "internalType": "enum PoolManager.RewardStrategy",
              "name": "rewardStrategy",
              "type": "uint8"
            },
            {
              "internalType": "uint256",
              "name": "rewardRatePerSecond",
              "type": "uint256"
            },
            {
              "internalType": "uint256[]",
              "name": "allowedStakeDurations",
              "type": "uint256[]"
            },
            {
              "internalType": "uint256",
              "name": "maxDuration",
              "type": "uint256"
            },
            {
              "internalType": "uint256",
              "name": "vestingDuration",
              "type": "uint256"
            },
            {
              "internalType": "bool",
              "name": "vestRewardsByDefault",
              "type": "bool"
            },
            {
              "internalType": "uint256[]",
              "name": "monthlyRewards",
              "type": "uint256[]"
            },
            {
              "internalType": "uint256",
              "name": "monthlyRewardIndex",
              "type": "uint256"
            },
            {
              "internalType": "uint256",
              "name": "monthlyRewardStart",
              "type": "uint256"
            },
            {
              "internalType": "uint256[]",
              "name": "weeklyRewards",
              "type": "uint256[]"
            },
            {
              "internalType": "uint256",
              "name": "weeklyRewardIndex",
              "type": "uint256"
            },
            {
              "internalType": "uint256",
              "name": "weeklyRewardStart",
              "type": "uint256"
            },
            {
              "internalType": "uint256",
              "name": "liquidityPoolOwedECM",
              "type": "uint256"
            },
            {
              "internalType": "uint256",
              "name": "ecmMovedToLiquidity",
              "type": "uint256"
            },
            {
              "internalType": "uint256",
              "name": "usdtMovedToLiquidity",
              "type": "uint256"
            },
            {
              "internalType": "uint256",
              "name": "ecmAddedToUniswap",
              "type": "uint256"
            },
            {
              "internalType": "uint256",
              "name": "usdtAddedToUniswap",
              "type": "uint256"
            },
            {
              "internalType": "uint256",
              "name": "ecmVested",
              "type": "uint256"
            },
            {
              "internalType": "uint256",
              "name": "rewardsPaid",
              "type": "uint256"
            },
            {
              "internalType": "uint256",
              "name": "totalRewardsAccrued",
              "type": "uint256"
            },
            {
              "internalType": "uint256",
              "name": "poolCreatedAt",
              "type": "uint256"
            },
            {
              "internalType": "uint256",
              "name": "totalPenaltiesCollected",
              "type": "uint256"
            },
            {
              "internalType": "uint256",
              "name": "peakTotalStaked",
              "type": "uint256"
            },
            {
              "internalType": "uint256",
              "name": "totalUniqueStakers",
              "type": "uint256"
            },
            {
              "internalType": "uint256",
              "name": "lifetimeStakeVolume",
              "type": "uint256"
            },
            {
              "internalType": "uint256",
              "name": "lifetimeUnstakeVolume",
              "type": "uint256"
            }
          ],
          "internalType": "struct PoolManager.Pool",
          "name": "pool",
          "type": "tuple"
        }
      ],
      "stateMutability": "view",
      "type": "function"
    },
    {
      "inputs": [
        {
          "internalType": "uint256",
          "name": "poolId",
          "type": "uint256"
        }
      ],
      "name": "getPriceSpot",
      "outputs": [
        {
          "internalType": "uint256",
          "name": "usdtPerEcm",
          "type": "uint256"
        },
        {
          "internalType": "uint256",
          "name": "reserveECM",
          "type": "uint256"
        },
        {
          "internalType": "uint256",
          "name": "reserveUSDT",
          "type": "uint256"
        }
      ],
      "stateMutability": "view",
      "type": "function"
    },
    {
      "inputs": [
        {
          "internalType": "uint256",
          "name": "poolId",
          "type": "uint256"
        },
        {
          "internalType": "uint256",
          "name": "exactEcm",
          "type": "uint256"
        }
      ],
      "name": "getRequiredUSDTForExactECM",
      "outputs": [
        {
          "internalType": "uint256",
          "name": "usdtRequired",
          "type": "uint256"
        }
      ],
      "stateMutability": "view",
      "type": "function"
    },
    {
      "inputs": [
        {
          "internalType": "uint256",
          "name": "poolId",
          "type": "uint256"
        },
        {
          "internalType": "address",
          "name": "user",
          "type": "address"
        }
      ],
      "name": "getUserAnalytics",
      "outputs": [
        {
          "internalType": "bool",
          "name": "hasStaked",
          "type": "bool"
        },
        {
          "internalType": "uint256",
          "name": "firstStakeTimestamp",
          "type": "uint256"
        },
        {
          "internalType": "uint256",
          "name": "lastActionTimestamp",
          "type": "uint256"
        },
        {
          "internalType": "uint256",
          "name": "totalStaked",
          "type": "uint256"
        },
        {
          "internalType": "uint256",
          "name": "totalUnstaked",
          "type": "uint256"
        },
        {
          "internalType": "uint256",
          "name": "totalRewardsClaimed",
          "type": "uint256"
        },
        {
          "internalType": "uint256",
          "name": "totalPenaltiesPaid",
          "type": "uint256"
        },
        {
          "internalType": "uint256",
          "name": "accountAge",
          "type": "uint256"
        }
      ],
      "stateMutability": "view",
      "type": "function"
    },
    {
      "inputs": [
        {
          "internalType": "uint256",
          "name": "poolId",
          "type": "uint256"
        },
        {
          "internalType": "address",
          "name": "user",
          "type": "address"
        }
      ],
      "name": "getUserInfo",
      "outputs": [
        {
          "components": [
            {
              "internalType": "uint256",
              "name": "bought",
              "type": "uint256"
            },
            {
              "internalType": "uint256",
              "name": "staked",
              "type": "uint256"
            },
            {
              "internalType": "uint256",
              "name": "stakeStart",
              "type": "uint256"
            },
            {
              "internalType": "uint256",
              "name": "stakeDuration",
              "type": "uint256"
            },
            {
              "internalType": "uint256",
              "name": "rewardDebt",
              "type": "uint256"
            },
            {
              "internalType": "uint256",
              "name": "pendingRewards",
              "type": "uint256"
            },
            {
              "internalType": "bool",
              "name": "hasStaked",
              "type": "bool"
            },
            {
              "internalType": "uint256",
              "name": "totalStaked",
              "type": "uint256"
            },
            {
              "internalType": "uint256",
              "name": "totalUnstaked",
              "type": "uint256"
            },
            {
              "internalType": "uint256",
              "name": "totalRewardsClaimed",
              "type": "uint256"
            },
            {
              "internalType": "uint256",
              "name": "totalPenaltiesPaid",
              "type": "uint256"
            },
            {
              "internalType": "uint256",
              "name": "firstStakeTimestamp",
              "type": "uint256"
            },
            {
              "internalType": "uint256",
              "name": "lastActionTimestamp",
              "type": "uint256"
            }
          ],
          "internalType": "struct PoolManager.UserInfo",
          "name": "userInformation",
          "type": "tuple"
        }
      ],
      "stateMutability": "view",
      "type": "function"
    },
    {
      "inputs": [],
      "name": "owner",
      "outputs": [
        {
          "internalType": "address",
          "name": "",
          "type": "address"
        }
      ],
      "stateMutability": "view",
      "type": "function"
    },
    {
      "inputs": [],
      "name": "pause",
      "outputs": [],
      "stateMutability": "nonpayable",
      "type": "function"
    },
    {
      "inputs": [],
      "name": "paused",
      "outputs": [
        {
          "internalType": "bool",
          "name": "",
          "type": "bool"
        }
      ],
      "stateMutability": "view",
      "type": "function"
    },
    {
      "inputs": [
        {
          "internalType": "uint256",
          "name": "poolId",
          "type": "uint256"
        },
        {
          "internalType": "address",
          "name": "user",
          "type": "address"
        }
      ],
      "name": "pendingRewards",
      "outputs": [
        {
          "internalType": "uint256",
          "name": "pending",
          "type": "uint256"
        }
      ],
      "stateMutability": "view",
      "type": "function"
    },
    {
      "inputs": [],
      "name": "poolCount",
      "outputs": [
        {
          "internalType": "uint256",
          "name": "",
          "type": "uint256"
        }
      ],
      "stateMutability": "view",
      "type": "function"
    },
    {
      "inputs": [
        {
          "internalType": "uint256",
          "name": "poolId",
          "type": "uint256"
        }
      ],
      "name": "pools",
      "outputs": [
        {
          "internalType": "uint32",
          "name": "id",
          "type": "uint32"
        },
        {
          "internalType": "bool",
          "name": "active",
          "type": "bool"
        },
        {
          "internalType": "contract IERC20",
          "name": "ecm",
          "type": "address"
        },
        {
          "internalType": "contract IERC20",
          "name": "usdt",
          "type": "address"
        },
        {
          "internalType": "contract IUniswapV2Pair",
          "name": "pair",
          "type": "address"
        },
        {
          "internalType": "uint16",
          "name": "penaltyBps",
          "type": "uint16"
        },
        {
          "internalType": "address",
          "name": "penaltyReceiver",
          "type": "address"
        },
        {
          "internalType": "uint256",
          "name": "allocatedForSale",
          "type": "uint256"
        },
        {
          "internalType": "uint256",
          "name": "allocatedForRewards",
          "type": "uint256"
        },
        {
          "internalType": "uint256",
          "name": "sold",
          "type": "uint256"
        },
        {
          "internalType": "uint256",
          "name": "collectedUSDT",
          "type": "uint256"
        },
        {
          "internalType": "uint256",
          "name": "totalStaked",
          "type": "uint256"
        },
        {
          "internalType": "uint256",
          "name": "accRewardPerShare",
          "type": "uint256"
        },
        {
          "internalType": "uint256",
          "name": "lastRewardTime",
          "type": "uint256"
        },
        {
          "internalType": "enum PoolManager.RewardStrategy",
          "name": "rewardStrategy",
          "type": "uint8"
        },
        {
          "internalType": "uint256",
          "name": "rewardRatePerSecond",
          "type": "uint256"
        },
        {
          "internalType": "uint256",
          "name": "maxDuration",
          "type": "uint256"
        },
        {
          "internalType": "uint256",
          "name": "vestingDuration",
          "type": "uint256"
        },
        {
          "internalType": "bool",
          "name": "vestRewardsByDefault",
          "type": "bool"
        },
        {
          "internalType": "uint256",
          "name": "monthlyRewardIndex",
          "type": "uint256"
        },
        {
          "internalType": "uint256",
          "name": "monthlyRewardStart",
          "type": "uint256"
        },
        {
          "internalType": "uint256",
          "name": "weeklyRewardIndex",
          "type": "uint256"
        },
        {
          "internalType": "uint256",
          "name": "weeklyRewardStart",
          "type": "uint256"
        },
        {
          "internalType": "uint256",
          "name": "liquidityPoolOwedECM",
          "type": "uint256"
        },
        {
          "internalType": "uint256",
          "name": "ecmMovedToLiquidity",
          "type": "uint256"
        },
        {
          "internalType": "uint256",
          "name": "usdtMovedToLiquidity",
          "type": "uint256"
        },
        {
          "internalType": "uint256",
          "name": "ecmAddedToUniswap",
          "type": "uint256"
        },
        {
          "internalType": "uint256",
          "name": "usdtAddedToUniswap",
          "type": "uint256"
        },
        {
          "internalType": "uint256",
          "name": "ecmVested",
          "type": "uint256"
        },
        {
          "internalType": "uint256",
          "name": "rewardsPaid",
          "type": "uint256"
        },
        {
          "internalType": "uint256",
          "name": "totalRewardsAccrued",
          "type": "uint256"
        },
        {
          "internalType": "uint256",
          "name": "poolCreatedAt",
          "type": "uint256"
        },
        {
          "internalType": "uint256",
          "name": "totalPenaltiesCollected",
          "type": "uint256"
        },
        {
          "internalType": "uint256",
          "name": "peakTotalStaked",
          "type": "uint256"
        },
        {
          "internalType": "uint256",
          "name": "totalUniqueStakers",
          "type": "uint256"
        },
        {
          "internalType": "uint256",
          "name": "lifetimeStakeVolume",
          "type": "uint256"
        },
        {
          "internalType": "uint256",
          "name": "lifetimeUnstakeVolume",
          "type": "uint256"
        }
      ],
      "stateMutability": "view",
      "type": "function"
    },
    {
      "inputs": [
        {
          "internalType": "uint256",
          "name": "poolId",
          "type": "uint256"
        },
        {
          "internalType": "uint256",
          "name": "ecmAmount",
          "type": "uint256"
        },
        {
          "internalType": "uint256",
          "name": "usdtAmount",
          "type": "uint256"
        }
      ],
      "name": "recordLiquidityAdded",
      "outputs": [],
      "stateMutability": "nonpayable",
      "type": "function"
    },
    {
      "inputs": [],
      "name": "referralModule",
      "outputs": [
        {
          "internalType": "contract IReferralModule",
          "name": "",
          "type": "address"
        }
      ],
      "stateMutability": "view",
      "type": "function"
    },
    {
      "inputs": [],
      "name": "referralVoucher",
      "outputs": [
        {
          "internalType": "contract IReferralVoucher",
          "name": "",
          "type": "address"
        }
      ],
      "stateMutability": "view",
      "type": "function"
    },
    {
      "inputs": [
        {
          "internalType": "uint256",
          "name": "poolId",
          "type": "uint256"
        },
        {
          "internalType": "uint256",
          "name": "ecmAmount",
          "type": "uint256"
        }
      ],
      "name": "refillPoolManager",
      "outputs": [],
      "stateMutability": "nonpayable",
      "type": "function"
    },
    {
      "inputs": [
        {
          "internalType": "address",
          "name": "manager",
          "type": "address"
        }
      ],
      "name": "removeAuthorizedLiquidityManager",
      "outputs": [],
      "stateMutability": "nonpayable",
      "type": "function"
    },
    {
      "inputs": [],
      "name": "renounceOwnership",
      "outputs": [],
      "stateMutability": "nonpayable",
      "type": "function"
    },
    {
      "inputs": [
        {
          "internalType": "uint256",
          "name": "poolId",
          "type": "uint256"
        },
        {
          "internalType": "uint256[]",
          "name": "durations",
          "type": "uint256[]"
        }
      ],
      "name": "setAllowedStakeDurations",
      "outputs": [],
      "stateMutability": "nonpayable",
      "type": "function"
    },
    {
      "inputs": [
        {
          "internalType": "uint256",
          "name": "poolId",
          "type": "uint256"
        }
      ],
      "name": "setLinearRewardRate",
      "outputs": [],
      "stateMutability": "nonpayable",
      "type": "function"
    },
    {
      "inputs": [
        {
          "internalType": "uint256",
          "name": "poolId",
          "type": "uint256"
        },
        {
          "internalType": "uint256[]",
          "name": "monthlyAmounts",
          "type": "uint256[]"
        }
      ],
      "name": "setMonthlyRewards",
      "outputs": [],
      "stateMutability": "nonpayable",
      "type": "function"
    },
    {
      "inputs": [
        {
          "components": [
            {
              "internalType": "bytes32",
              "name": "vid",
              "type": "bytes32"
            },
            {
              "internalType": "bytes32",
              "name": "codeHash",
              "type": "bytes32"
            },
            {
              "internalType": "address",
              "name": "owner",
              "type": "address"
            },
            {
              "internalType": "uint16",
              "name": "directBps",
              "type": "uint16"
            },
            {
              "internalType": "bool",
              "name": "transferOnUse",
              "type": "bool"
            },
            {
              "internalType": "uint64",
              "name": "expiry",
              "type": "uint64"
            },
            {
              "internalType": "uint32",
              "name": "maxUses",
              "type": "uint32"
            },
            {
              "internalType": "uint256",
              "name": "nonce",
              "type": "uint256"
            }
          ],
          "internalType": "struct IReferralVoucher.VoucherInput",
          "name": "voucherInput",
          "type": "tuple"
        },
        {
          "internalType": "bytes",
          "name": "voucherSignature",
          "type": "bytes"
        }
      ],
      "name": "setMyReferrer",
      "outputs": [],
      "stateMutability": "nonpayable",
      "type": "function"
    },
    {
      "inputs": [
        {
          "internalType": "uint256",
          "name": "poolId",
          "type": "uint256"
        },
        {
          "internalType": "uint16",
          "name": "penaltyBps",
          "type": "uint16"
        },
        {
          "internalType": "address",
          "name": "penaltyReceiver",
          "type": "address"
        }
      ],
      "name": "setPenaltyConfig",
      "outputs": [],
      "stateMutability": "nonpayable",
      "type": "function"
    },
    {
      "inputs": [
        {
          "internalType": "uint256",
          "name": "poolId",
          "type": "uint256"
        },
        {
          "internalType": "bool",
          "name": "active",
          "type": "bool"
        }
      ],
      "name": "setPoolActive",
      "outputs": [],
      "stateMutability": "nonpayable",
      "type": "function"
    },
    {
      "inputs": [
        {
          "internalType": "address",
          "name": "_referralModule",
          "type": "address"
        }
      ],
      "name": "setReferralModule",
      "outputs": [],
      "stateMutability": "nonpayable",
      "type": "function"
    },
    {
      "inputs": [
        {
          "internalType": "address",
          "name": "_referralVoucher",
          "type": "address"
        }
      ],
      "name": "setReferralVoucher",
      "outputs": [],
      "stateMutability": "nonpayable",
      "type": "function"
    },
    {
      "inputs": [
        {
          "internalType": "uint256",
          "name": "poolId",
          "type": "uint256"
        },
        {
          "internalType": "uint256",
          "name": "vestingDuration",
          "type": "uint256"
        },
        {
          "internalType": "bool",
          "name": "vestByDefault",
          "type": "bool"
        }
      ],
      "name": "setVestingConfig",
      "outputs": [],
      "stateMutability": "nonpayable",
      "type": "function"
    },
    {
      "inputs": [
        {
          "internalType": "address",
          "name": "_vestingManager",
          "type": "address"
        }
      ],
      "name": "setVestingManager",
      "outputs": [],
      "stateMutability": "nonpayable",
      "type": "function"
    },
    {
      "inputs": [
        {
          "internalType": "uint256",
          "name": "poolId",
          "type": "uint256"
        },
        {
          "internalType": "uint256[]",
          "name": "weeklyAmounts",
          "type": "uint256[]"
        }
      ],
      "name": "setWeeklyRewards",
      "outputs": [],
      "stateMutability": "nonpayable",
      "type": "function"
    },
    {
      "inputs": [
        {
          "internalType": "uint256",
          "name": "poolId",
          "type": "uint256"
        },
        {
          "internalType": "uint256",
          "name": "ecmAmount",
          "type": "uint256"
        },
        {
          "internalType": "uint256",
          "name": "selectedStakeDuration",
          "type": "uint256"
        }
      ],
      "name": "stakeECM",
      "outputs": [],
      "stateMutability": "nonpayable",
      "type": "function"
    },
    {
      "inputs": [
        {
          "internalType": "address",
          "name": "newOwner",
          "type": "address"
        }
      ],
      "name": "transferOwnership",
      "outputs": [],
      "stateMutability": "nonpayable",
      "type": "function"
    },
    {
      "inputs": [
        {
          "internalType": "uint256",
          "name": "poolId",
          "type": "uint256"
        },
        {
          "internalType": "address",
          "name": "liquidityManager",
          "type": "address"
        },
        {
          "internalType": "uint256",
          "name": "ecmAmount",
          "type": "uint256"
        },
        {
          "internalType": "uint256",
          "name": "usdtAmount",
          "type": "uint256"
        }
      ],
      "name": "transferToLiquidityManager",
      "outputs": [],
      "stateMutability": "nonpayable",
      "type": "function"
    },
    {
      "inputs": [],
      "name": "unpause",
      "outputs": [],
      "stateMutability": "nonpayable",
      "type": "function"
    },
    {
      "inputs": [
        {
          "internalType": "uint256",
          "name": "poolId",
          "type": "uint256"
        }
      ],
      "name": "unstake",
      "outputs": [],
      "stateMutability": "nonpayable",
      "type": "function"
    },
    {
      "inputs": [
        {
          "internalType": "uint256",
          "name": "poolId",
          "type": "uint256"
        },
        {
          "internalType": "address",
          "name": "user",
          "type": "address"
        }
      ],
      "name": "userInfo",
      "outputs": [
        {
          "internalType": "uint256",
          "name": "bought",
          "type": "uint256"
        },
        {
          "internalType": "uint256",
          "name": "staked",
          "type": "uint256"
        },
        {
          "internalType": "uint256",
          "name": "stakeStart",
          "type": "uint256"
        },
        {
          "internalType": "uint256",
          "name": "stakeDuration",
          "type": "uint256"
        },
        {
          "internalType": "uint256",
          "name": "rewardDebt",
          "type": "uint256"
        },
        {
          "internalType": "uint256",
          "name": "pendingRewards",
          "type": "uint256"
        },
        {
          "internalType": "bool",
          "name": "hasStaked",
          "type": "bool"
        },
        {
          "internalType": "uint256",
          "name": "totalStaked",
          "type": "uint256"
        },
        {
          "internalType": "uint256",
          "name": "totalUnstaked",
          "type": "uint256"
        },
        {
          "internalType": "uint256",
          "name": "totalRewardsClaimed",
          "type": "uint256"
        },
        {
          "internalType": "uint256",
          "name": "totalPenaltiesPaid",
          "type": "uint256"
        },
        {
          "internalType": "uint256",
          "name": "firstStakeTimestamp",
          "type": "uint256"
        },
        {
          "internalType": "uint256",
          "name": "lastActionTimestamp",
          "type": "uint256"
        }
      ],
      "stateMutability": "view",
      "type": "function"
    },
    {
      "inputs": [],
      "name": "vestingManager",
      "outputs": [
        {
          "internalType": "contract IVestingManager",
          "name": "",
          "type": "address"
        }
      ],
      "stateMutability": "view",
      "type": "function"
    }
  ],
  "bytecode": "0x60a0346100e957601f6156f538819003918201601f19168301916001600160401b038311848410176100ee578084926020946040528339810103126100e957516001600160a01b038116908190036100e95733156100d35760008054336001600160a01b0319821681178355604051939290916001600160a01b0316907f8be0079c531659141344cd1fd0a4f28419497f9722a3daafe3b4186f6b6457e09080a36001805580156100c2576080526155f09081610105823960805181610f990152f35b63e6c4247b60e01b60005260046000fd5b631e4fbdf760e01b600052600060045260246000fd5b600080fd5b634e487b7160e01b600052604160045260246000fdfe610380604052600436101561001357600080fd5b6000803560e01c8063027f933f146134745780630962ef791461344f578063102558a9146134265780631069f3b51461327957806315d7b2c4146132015780631acf559c146131db57806321d31c841461307b57806322b007c1146130505780632e17de7814612d7a5780632f380b35146127fa57806330068a65146127ac5780633f4ba83a1461273e57806347c4d3111461271a57806348451ad1146126db578063531ed37a1461267a5780635c66dffd146126105780635c975abb146125eb5780635fe73e351461241e578063612045501461238257806369756ab3146122c15780636de04c48146122a7578063715018a61461224d5780637336603d146120bc578063773c7520146120935780637dd380121461205f5780638421343014611f545780638456cb5914611ef35780638644779014611d8b5780638c53bf8614611cf25780638da5cb5b14611ccb5780638e0dd8e414611c9657806393f1a40b14611bc55780639879807b14611b5357806398ffad1314611ab7578063a13aa85a14611a9a578063a2274fdc1461167b578063a281c3ee1461160c578063a3fc2afd14611591578063a61c174f1461146c578063aa0c53e9146113d3578063aaf5eb68146113b0578063ac4afa3814611051578063ad98942814611032578063ccfe01c814611015578063cd671a5814610ff7578063d18df53c14610fc8578063d826492014610f83578063d87e257914610b6e578063d9c2f66614610a45578063db27b8dd14610a1c578063dd97ac52146109b4578063df7045bf14610997578063e17937e714610956578063e4dda7681461085a578063e5afac44146106bd578063ea17fa9314610635578063eda64d9014610567578063efe65a7114610380578063f2fde38b146102fa578063f525cb68146102dc5763fd967f47146102bd57600080fd5b346102d957806003193601126102d95760206040516127108152f35b80fd5b50346102d957806003193601126102d9576020600454604051908152f35b50346102d95760203660031901126102d9576103146135af565b61031c614737565b6001600160a01b0316801561036c5781546001600160a01b03198116821783556001600160a01b03167f8be0079c531659141344cd1fd0a4f28419497f9722a3daafe3b4186f6b6457e08380a380f35b631e4fbdf760e01b82526004829052602482fd5b50346102d95760203660031901126102d9576004358190600454811015610558578252600260208190526040808420918201549051630240bc6b60e21b81526001600160a01b039091169391606082600481885afa94851561054d578392849661050e575b5090602060049260405193848092630dfe168160e01b82525afa9182156105035784926104c3575b50546001600160a01b0391821660289190911c909116036104b0576001600160701b038091169316905b83610463575b5061045f90604051938493846040919493926060820195825260208201520152565b0390f35b909150670de0b6b3a7640000820290828204670de0b6b3a7640000148315171561049c57506104958361045f926136bd565b919061043d565b634e487b7160e01b81526011600452602490fd5b6001600160701b03938416931690610437565b9091506020813d6020116104fb575b816104df602093836137fa565b810103126104f7576104f090614723565b903861040d565b8380fd5b3d91506104d2565b6040513d86823e3d90fd5b600492919650602093506105399060603d606011610546575b61053181836137fa565b8101906146f6565b50939093969192506103e5565b503d610527565b6040513d85823e3d90fd5b6302721e1f60e61b8352600483fd5b50346102d95760403660031901126102d95760043590610585613599565b9160045481101561062657610100926040918352600360205281832060009160018060a01b031682526020522060ff60068201541691600b82015491600c8101546007820154600883015491600a60098501549401549486151560001461062057506105f1864261378d565b955b6040519715158852602088015260408701526060860152608085015260a084015260c083015260e0820152f35b956105f3565b6302721e1f60e61b8252600482fd5b50346102d95760403660031901126102d9576004356024358015158091036106b95761065f614737565b60045482101561055857818352600260209081526040808520805464ff00000000191684841b64ff0000000016179055519182527f0578e9ec7e59e0a7d127f94132ea2769942285b70137860fb8485c280e07dc5291a280f35b8280fd5b50346102d9576106cc36613544565b6106d893929193614737565b60045482101561055857801561084b578183526002602052604083209360ff600b860154166003811015610837576002036108285761071683614782565b83845b83811061080857506005860154106107f95760148501948554858755806107d5575b506001600160401b0383116107c1576107548387613706565b819585526020852095855b8481106107ad57505090818560157f34ead491110517a207a959b3ca92c494bea20d0c4ce880f9b7fb45750e8a982e959401556016429101556107a760405192839283613764565b0390a280f35b60019060208335930192818a01550161075f565b634e487b7160e01b85526041600452602485fd5b86865260208620908101905b8181106107ee575061073b565b8681556001016107e1565b632150464360e21b8452600484fd5b9061082160019161081a848787614611565b359061379a565b9101610719565b632711b74d60e11b8452600484fd5b634e487b7160e01b85526021600452602485fd5b637bc5d0fb60e01b8352600483fd5b50346102d95760603660031901126102d95760043560243561ffff8116908181036104f7576108876135c5565b61088f614737565b600454841015610947576127108311610938576001600160a01b0316908115610929579160409160037f75e02dd8cf5a2395d4a4560875c7d4182564908e491ea3b6a33a2eee73188c5894868852600260205261090a85892091600283019081549061ffff60a01b9060a01b169061ffff60a01b1916179055565b0180546001600160a01b0319168217905582519182526020820152a280f35b63e6c4247b60e01b8552600485fd5b6366cdc4f560e01b8552600485fd5b6302721e1f60e61b8552600485fd5b50346102d95760403660031901126102d957608061097d610975613599565b600435614621565b916040519315158452602084015260408301526060820152f35b50346102d957806003193601126102d95750602060405160348152f35b50346102d95760203660031901126102d9576109ce6135af565b6109d6614737565b600880546001600160a01b0319166001600160a01b039290921691821790557fb1a3f2e6f90280ec79d5b222ccb043ff97e7c7bf51b703239f53be6a50919fff8280a280f35b50346102d957806003193601126102d9576005546040516001600160a01b039091168152602090f35b50346102d957610a5436613544565b610a6093929193614737565b600454821015610558578183526002602052604083209360ff600b86015416600381101561083757600103610828578115610b5f57610a9e83614782565b83845b838110610b465750600586015410610b375760118501946001600160401b0383116107c157610ad08387613706565b819585526020852095855b848110610b2357505090818560127f79f165e82b8cc80adaeca5c35344767a46d86c8cff52c5918271049b8857aa80959401556013429101556107a760405192839283613764565b60019060208335930192818a015501610adb565b632c0f067b60e21b8452600484fd5b90610b5860019161081a848787614611565b9101610aa1565b63fc2e3fcb60e01b8452600484fd5b50346102d95760203660031901126102d9576004356001600160401b038111610f7f578060040161014060031983360301126106b957610bac614737565b6001600160a01b03610bbd826145b9565b16158015610f63575b8015610f47575b610f385760648201906001600160a01b03610be7836145b9565b1615610f295761012483019061271061ffff610c02846145cd565b16116109385760a4840190610c1782826145dc565b905015610f1a5760c48501358015610f0b57610c3383836145dc565b9050875b818110610ed957505060045495610c4d87613a60565b600455868852600260205260408820805490929064ffffffffff191663ffffffff8916176401000000001765010000000000600160c81b03610c8e866145b9565b60281b1665010000000000600160c81b0319919091161783556024820196610d59906001600160a01b03610cc18a6145b9565b6001870180546001600160a01b0319166001600160a01b039390921683169190911790556044850198610d5491610cf78b6145b9565b600289018054919092166001600160a01b03166001600160a01b0319909116178155908d61ffff610d27836145cd565b16159050610ec357610d38906145cd565b815461ffff60a01b191660a09190911b61ffff60a01b16179055565b6145b9565b600384019060018060a01b03166bffffffffffffffffffffffff60a01b8254161790556084820135946003861015610ebf57610da690600b850160ff1981541660ff8916179055856145dc565b90600d8501906001600160401b038311610eab57610dc48383613706565b908b5260208b208b5b838110610e975750505050600e83015560e4810135600f83015561010401358015158103610e935793610e7c8794610e62610e5c610e567fe9cbd0a147c10fbc6b0fba9459fe84a7245f402361a4f79f126d4e8f984ea5d09787610e4560209f9c601060409b019060ff801983541691151516179055565b42600a820155601f429101556145b9565b996145b9565b936145b9565b84516001600160a01b03909116815296508987019061361e565b6001600160a01b03908116951693a4604051908152f35b8780fd5b600190602084359401938184015501610dcd565b634e487b7160e01b8c52604160045260248cfd5b8980fd5b50805461ffff60a01b191661027160a21b179055565b82610eee82610ee888886145dc565b90614611565b3511610efc57600101610c37565b637616640160e01b8952600489fd5b637616640160e01b8752600487fd5b637616640160e01b8652600486fd5b63e6c4247b60e01b8452600484fd5b63e6c4247b60e01b8352600483fd5b506001600160a01b03610f5c604484016145b9565b1615610bcd565b506001600160a01b03610f78602484016145b9565b1615610bc6565b5080fd5b50346102d957806003193601126102d9576040517f00000000000000000000000000000000000000000000000000000000000000006001600160a01b03168152602090f35b50346102d95760403660031901126102d9576020610fef610fe7613599565b60043561442a565b604051908152f35b50346102d957806003193601126102d957602060405162093a808152f35b50346102d9576020610fef6110293661368f565b929190916141ac565b50346102d95760203660031901126102d9576020610fef600435614153565b50346102d95760203660031901126102d95760409060043581526002602052206103405261034051546103605260018060a01b036001610340510154166103205260026103405101546101205260018060a01b036003610340510154166103005260046103405101546005610340510154600661034051015460076103405101546112b160086103405101546009610340510154600a6103405101549060ff600b6103405101541692600c61034051015495600e61034051015497600f6103405101549960ff6010610340510154169b6012610340510154608052601361034051015460a052601561034051015460e05260166103405101546102e05260176103405101546102c05260186103405101546102a052601961034051015461028052601a61034051015461026052601b61034051015461024052601c61034051015461022052601d61034051015461020052601e6103405101546101e052601f6103405101546101c05260206103405101546101a05260216103405101546101805260226103405101546101605260236103405101546101405260246103405101546101005260405160c05263ffffffff610360511660c0515260ff6103605160201c161515602060c051015260018060a01b036103605160281c16604060c051015261032051606060c051015260018060a01b036101205116608060c051015261ffff6101205160a01c1660a060c05101526103005160c08051015260e060c051015261010060c051015261012060c051015261014060c051015261016060c051015261018060c05101526101a060c05101526101c060c051019061361e565b6101e060c051015261020060c051015261022060c0510152151561024060c051015260805161026060c051015260a05161028060c051015260e0516102a060c05101526102e0516102c060c05101526102c0516102e060c05101526102a05161030060c05101526102805161032060c05101526102605161034060c05101526102405161036060c05101526102205161038060c0510152610200516103a060c05101526101e0516103c060c05101526101c0516103e060c05101526101a05161040060c05101526101805161042060c05101526101605161044060c05101526101405161046060c05101526101005161048060c05101526104a060c051f35b50346102d957806003193601126102d9576020604051670de0b6b3a76400008152f35b50346102d9576113e2366135db565b6113ea614737565b60045482101561055857801561145d5760207f1733a87f17a4911b7b0bf5812cdc6402712e81c702e178ccd54c3b51f6f1964a91838552600282526005604086206114458360018060a01b03835460281c1630903390614e9c565b0161145182825461379a565b9055604051908152a280f35b63162908e360e11b8352600483fd5b50346102d95761147b36613675565b611486929192614760565b61148e614ca9565b60045482101561158257821561157357681b1ae4d6e2ef500000831061156557818452600260205260ff604085205460201c1615611556576114d0818361508d565b1561154757818452600260205261150483604086206114ee85614782565b543090339060281c6001600160a01b0316614e9c565b61150f818484614d57565b60405192835260208301527f267e5a7dc0808450a76bfe185a1bf0d73f2a139274d76aaf85d1ad364240de8960403393a36001805580f35b6302336bad60e51b8452600484fd5b6338c0a90160e11b8452600484fd5b62b875e560e21b8452600484fd5b63162908e360e11b8452600484fd5b6302721e1f60e61b8452600484fd5b50346102d95760203660031901126102d9576115ab6135af565b6115b3614737565b6001600160a01b031680156115fd57808252600660205260408220805460ff191690557f2ef2235f51d2aac094fa0fc31451c148c796a01bc056bba7ed9e7e455a2274348280a280f35b63e6c4247b60e01b8252600482fd5b50346102d95760203660031901126102d9576116266135af565b61162e614737565b6001600160a01b031680156115fd57808252600660205260408220805460ff191660011790557f18b1d6c8e7bc3edd05c60e8c31c8f4b996eafd14e36d9405d90152583b22b18d8280a280f35b50346102d9576101a03660031901126102d957602435600435604435606435610100366083190112611a9657610184356001600160401b038111611a92576116c79036906004016135f1565b6116d2939193614760565b6116da614ca9565b600454851015611a83578515611a6657681b1ae4d6e2ef5000008610611a75578115611a6657848752600260205260ff604088205460201c1615611a5757611722838661508d565b15611a485761173085614782565b848752600260205261174f60408820600660048201549101549061378d565b8611611a395761175f8686614b25565b918211611a2a57611771868387614d09565b8487526002602052604087206007548895869390916001600160a01b03169081151580611a1f575b611812575b505050507fb6dbec8c641e3298284d7480ad1c51f3621a1517cee4fb05a75a5e99a676879593611808916117d3858989614d57565b6040519485943399869192608093969594919660a084019784526020840152604083015260018060a01b031660608201520152565b0390a36001805580f35b60a093975061185294508a6040518096819582946367ec05a560e01b845261183e600485016084613974565b610140610104850152610144840191613a11565b3361012483015203925af1908115611a14578791611980575b5060018060a01b036020820151169086868983519760018060a01b03600854169081611899575b505061179e565b9160209493916101049360018060a09d999d1b03905460281c169a606061ffff6040830151169101511515906040519c8d978896631dcb11c160e31b88528b60048901523360248901528c60448901526064880152608487015260a486015260c485015260e48401525af1918215611975577fb6dbec8c641e3298284d7480ad1c51f3621a1517cee4fb05a75a5e99a67687959561180893611946575b8296508891935089818992611892565b6119679060203d60201161196e575b61195f81836137fa565b810190614057565b5038611936565b503d611955565b6040513d8a823e3d90fd5b905060a0813d60a011611a0c575b8161199b60a093836137fa565b81010312611a0857604051906119b0826137df565b805182526119c060208201614723565b6020830152604081015161ffff81168103611a0457604083015260608101518015158103611a045760608301526119f9906080016146e5565b60808201523861186b565b8880fd5b8680fd5b3d915061198e565b6040513d89823e3d90fd5b506084351515611799565b638199f5f360e01b8752600487fd5b6314a4028360e01b8752600487fd5b6302336bad60e51b8752600487fd5b6338c0a90160e11b8752600487fd5b63162908e360e11b8752600487fd5b62b875e560e21b8752600487fd5b6302721e1f60e61b8752600487fd5b8580fd5b8480fd5b50346102d957806003193601126102d95760206040516109c48152f35b50346102d95760603660031901126102d95760043560443560243581151582036104f757611ae3614737565b60045483101561158257907f9df838c91429977be4acbdf0c3bc76559f08e328ecba488d2d23129b756d5973918385526002602052611b3a8260106040882084600f820155019060ff801983541691151516179055565b60408051918252911515602082015290819081016107a7565b50346102d957611b62366135db565b611b6a614737565b60045482101561055857801561145d5760207faf7490cabbdbddd38b73bf3b079f936c3a66c85b8acd1cd888e8b7c1aafac0eb91838552600282526004604086206114458360018060a01b03835460281c1630903390614e9c565b50346102d95760403660031901126102d95760406101a09181611be6613599565b91600435815260036020522060009160018060a01b0316825260205220805490600181015490600281015460038201546004830154600584015460ff600686015416600786015491600887015493600988015495600a89015497600c600b8b01549a01549a6040519c8d5260208d015260408c015260608b015260808a015260a0890152151560c088015260e0870152610100860152610120850152610140840152610160830152610180820152f35b50346102d957611ca5366135db565b91600454821015611cbc576020610fef8484614ee0565b6302721e1f60e61b8152600490fd5b50346102d957806003193601126102d957546040516001600160a01b039091168152602090f35b50346102d957611d01366135db565b90600454811015610558579160e0928152600260205260408120611d29601f8201544261378d565b9260228201549260208301546c0c9f2c9cd04674edea40000000602185015492611d61602387015495600860248901549801546136dd565b90500494604051968752602087015260408601526060850152608084015260a083015260c0820152f35b50346102d957611d9a3661368f565b611da5929192614737565b6004548410156109475783855260026020526040852060088101546017820190611dd18254809261378d565b8611611ee45785611df29160188501611deb83825461379a565b905561379a565b90558054611e0f908590859060281c6001600160a01b0316614cc9565b81611e62575b50604080516001600160a01b0390931683526020830193909352918101919091527f2679e7b2a1800a522c4c410d743a2b23ab940ae02a770f7a31232f04721412c39080606081016107a7565b600781018054808411611ed55783856107a7948294611ea77f2679e7b2a1800a522c4c410d743a2b23ab940ae02a770f7a31232f04721412c39a9998611ecc9661378d565b905560198101611eb884825461379a565b9055600101546001600160a01b0316614cc9565b91929350611e15565b63162908e360e11b8852600488fd5b6319dac6d760e01b8852600488fd5b50346102d957806003193601126102d957611f0c614737565b611f14614ca9565b805460ff60a01b1916600160a01b1781556040513381527f62e78cea01bee320cd4e420270b5ea74000d11b0c9f74754ebdbfc544b05a25890602090a180f35b50346102d95760203660031901126102d957600435611f71614737565b6004548110156106265780825260026020526040822060ff600b82015416600381101561204b5761203c57600e810180541561202d57611fb083614782565b611fc36005830154601e8401549061378d565b90811561201e5754611fd4916136bd565b90811561200f57817fdf4ef818389beeee795da69aa5c7e7c0edebf9e52cda64f27f497e7a5e91458b92600c6020930155604051908152a280f35b6308af88a160e21b8452600484fd5b63619d41a160e01b8552600485fd5b637616640160e01b8452600484fd5b632711b74d60e11b8352600483fd5b634e487b7160e01b84526021600452602484fd5b50346102d95760203660031901126102d957606061207e600435614066565b90604051928352602083015215156040820152f35b50346102d957806003193601126102d9576007546040516001600160a01b039091168152602090f35b50346102d95760203660031901126102d95760043560045481101561062657815260026020526040812060048101546005820154926120fb848361379a565b9260068101549260088201546018830154601784015490601a850154926024601c87015495601d88015497602060018060a01b03825460281c16604051948580926370a0823160e01b82523060048301525afa928315612242578a93612207575b506101409c61218b6121919260206121826121778b8f61379a565b60248401549061379a565b9101549061379a565b9261379a565b908082106121fe576121a29161378d565b905b8181106121ef57906121b59161378d565b96975b604051998a5260208a015260408901526060880152608087015260a086015260c085015260e0840152610100830152610120820152f35b6121f89161378d565b976121b8565b505087906121a4565b92506020833d60201161223a575b81612222602093836137fa565b810103126122355791519161014061215c565b600080fd5b3d9150612215565b6040513d8c823e3d90fd5b50346102d957806003193601126102d957612266614737565b80546001600160a01b03198116825581906001600160a01b03167f8be0079c531659141344cd1fd0a4f28419497f9722a3daafe3b4186f6b6457e08280a380f35b50346102d9576020610fef6122bb366135db565b90613e32565b50346102d9576122d0366135db565b338352600660205260ff604084205416156123735760045482101561055857818352600260205260408320811561157357601781018054808411612364578360209381936123427fedc305474fbfc49295b7eece8f70340416dafac83f7bc2a3c741a6fcebba8b0c9761235a9561378d565b9055543090339060281c6001600160a01b0316614e9c565b604051908152a280f35b63162908e360e11b8652600486fd5b63c2f9089560e01b8352600483fd5b50346102d95761239136613675565b338452600660205260ff6040852054161561240f57600454831015611582577fab10e9f324be39a04e2b31e0ccb2e3477b414d29d901c3624e47625c9616ba54916040918486526002602052601b838720601a81016123f185825461379a565b9055016123ff82825461379a565b905582519182526020820152a280f35b63c2f9089560e01b8452600484fd5b50346102d9576101803660031901126102d9576044356004356024356101003660631901126104f757610164356001600160401b038111611a96576124679036906004016135f1565b939091612472614760565b61247a614ca9565b6004548410156125dc57801561236457838652600260205260ff604087205460201c16156125cd576124ac828561508d565b156125be576124ba84614782565b838652600260205260408620946124d18286614ee0565b95681b1ae4d6e2ef50000087106125b05780600660046124f69301549101549061378d565b8611611a39576125068686614b25565b918211611a2a57612518868387614d09565b8487526002602052604087206007548895869390916001600160a01b031690811515806125a5575b61257957505050507fb6dbec8c641e3298284d7480ad1c51f3621a1517cee4fb05a75a5e99a676879593611808916117d3858989614d57565b60a093975061185294508a6040518096819582946367ec05a560e01b845261183e600485016064613974565b506064351515612540565b62b875e560e21b8852600488fd5b6302336bad60e51b8652600486fd5b6338c0a90160e11b8652600486fd5b6302721e1f60e61b8652600486fd5b50346102d957806003193601126102d95760ff6020915460a01c166040519015158152f35b50346102d95760203660031901126102d95761262a6135af565b612632614737565b6001600160a01b031680156115fd57600780546001600160a01b031916821790557f683c3c3025c347557620d51fbc91d2dbe32e4ae38fba1933f8227d4ed97e9cf08280a280f35b50346102d95760603660031901126102d9576126946135af565b906024356126a06135c5565b926126a9614737565b6001600160a01b0316928315610f38576001600160a01b03811615610f3857811561145d576126d89293614cc9565b80f35b50346102d95760203660031901126102d95760209060ff906040906001600160a01b036127066135af565b168152600684522054166040519015158152f35b50346102d957806003193601126102d9576020604051681b1ae4d6e2ef5000008152f35b50346102d957806003193601126102d957612757614737565b805460ff8160a01c161561279d5760ff60a01b191681556040513381527f5db9ee0a495bf2e6ff9c91a7834c1ba4fdd244a5e8aa4e537bd38aeae4b073aa90602090a180f35b638dfc202b60e01b8252600482fd5b50346102d9576127bb366135db565b9060045481101561055857916127ef6c0c9f2c9cd04674edea400000009260209483526002855260086040842001546136dd565b905004604051908152f35b50346102d95760203660031901126102d957600435816104e060405161281f816137c3565b8281528260208201528260408201528260608201528260808201528260a08201528260c08201528260e08201528261010082015282610120820152826101408201528261016082015282610180820152826101a0820152826101c0820152826101e082015260606102008201528261022082015282610240820152826102608201526060610280820152826102a0820152826102c082015260606102e08201528261030082015282610320820152826103408201528261036082015282610380820152826103a0820152826103c0820152826103e08201528261040082015282610420820152826104408201528261046082015282610480820152826104a0820152826104c082015201526004548110156106265781526002602052604081206040519061294c826137c3565b805463ffffffff8116835260ff602082811c82161515908501526001600160a01b0360289290921c821660408501526001830154821660608501526002830154808316608086015261ffff60a091821c169085015260038084015490921660c0850152600483015460e085015260058301546101008501526006830154610120850152600783015461014085015260088301546101608501526009830154610180850152600a8301546101a0850152600b830154169081101561204b576101c0830152600c8101546101e0830152602490612a29600d8201613de7565b610200840152600e810154610220840152600f81015461024084015260ff6010820154161515610260840152612a6160118201613de7565b61028084015260128101546102a084015260138101546102c0840152612a8960148201613de7565b6102e084015260158101546103008401526016810154610320840152601781015461034084015260188101546103608401526019810154610380840152601a8101546103a0840152601b8101546103c0840152601c8101546103e0840152601d810154610400840152601e810154610420840152601f8101546104408401526020810154610460840152602181015461048084015260228101546104a084015260238101546104c084015201546104e082015260405180916020825263ffffffff815116602083015260208101511515604083015260018060a01b03604082015116606083015260018060a01b03606082015116608083015260018060a01b0360808201511660a083015261ffff60a08201511660c083015260018060a01b0360c08201511660e083015260e08101516101008301526101008101516101208301526101208101516101408301526101408101516101608301526101608101516101808301526101808101516101a08301526101a08101516101c0830152612c1b6101c08201516101e084019061361e565b6101e08101516102008301526104e0612cbb612c8b612c4d610200850151610500610220880152610520870190613641565b6102208501516102408701526102408501516102608701526102608501511515610280870152610280850151601f19878303016102a0880152613641565b6102a08401516102c08601526102c08401516102e08601526102e0840151601f1986830301610300870152613641565b916103008101516103208501526103208101516103408501526103408101516103608501526103608101516103808501526103808101516103a08501526103a08101516103c08501526103c08101516103e08501526103e08101516104008501526104008101516104208501526104208101516104408501526104408101516104608501526104608101516104808501526104808101516104a08501526104a08101516104c08501526104c08101518285015201516105008301520390f35b50346102d95760203660031901126102d957612d94614760565b6004546004351015611cbc57600435808252600260209081526040808420928452600382528084203360009081529252902060018101549091901561304257612dde600435614782565b600182015490670de0b6b3a7640000612dfb6009830154846136dd565b0490600584015491600485015490818111613025575b5050612e26600285015460038601549061379a565b8594904210612ff957835b60088301612e4082825461378d565b905560248301612e5186825461379a565b9055866001830155866004830155866005830155866002830155866003830155612e806008830191825461379a565b905542600c8201558415159182612fd2575b8280612fbc575b612f95575b8480612f74575b5050859280612f42575b505015612f05576118087f0ad7f5a09bf05d330eadd248181e29a0ab737be1eed232b6b6beb8750915185991604051918291339660043596846040919493926060820195825260208201520152565b6001805580f35b909150604051918252602082015233907fffdaf13b1d96bfc2213355f353f84c19493e0681eb0df26f83d862acd266750a604060043592a3612efe565b612f51919350336004356148cd565b9182612f5e575b80612eaf565b600901612f6c83825461379a565b905538612f58565b9054612f8e9190339060281c6001600160a01b0316614cc9565b3884612ea5565b80546003820154612fb79188916001600160a01b039081169160281c16614cc9565b612e9e565b5060038101546001600160a01b03161515612e99565b600a8201612fe187825461379a565b905560208101612ff287825461379a565b9055612e92565b935061271061301361ffff600284015460a01c16856136dd565b049361301f858561378d565b93612e31565b61303a9293916130349161378d565b9061379a565b903880612e11565b6273e5c360e31b8352600483fd5b50346102d95760603660031901126102d9576020610fef61306f613599565b60443590600435613a6f565b50346102d95736600319016101208112610f7f57610100136102d95780610104356001600160401b0381116131d8576130b89036906004016135f1565b91906130c2614760565b6130ca614ca9565b6008546001600160a01b031692836130e5575b826001805580f35b833b156106b957604051936351e6655960e01b85523360048601526004356024860152602435604486015260443560018060a01b038116809103611a9657606486015260643561ffff8116809103611a96576084860152608435801515809103611a965760a486015260a4356001600160401b038116809103611a965760c486015260c43563ffffffff8116809103611a965784866131a582968296839560e485015260e435610104850152610140610124850152610144840191613a11565b03925af180156131cb576131bb575b81806130dd565b6131c4916137fa565b38816131b4565b50604051903d90823e3d90fd5b50fd5b50346102d9576131ea366135db565b91600454821015611cbc576020610fef8484614b25565b50346102d95760203660031901126102d95761321b6135af565b613223614737565b6001600160a01b031680156115fd576020817fbef5b54a16952a5098fef2a5332942abfb5e653cfa1ffaaff13d7c49a108d6d2926bffffffffffffffffffffffff60a01b6005541617600555604051908152a180f35b50346102d95760403660031901126102d957600435613296613599565b90826101806040516132a7816137a7565b8281528260208201528260408201528260608201528260808201528260a08201528260c08201528260e082015282610100820152826101208201528261014082015282610160820152015260045481101561055857916040916101a093825260036020528282209060018060a01b0316825260205220604051613329816137a7565b808083549384825260018101546020830190815260028201546040840190815260038301546060850190815260048401546080860190815260058501549060a0870191825260ff6006870154169260c08801931515845260078701549460e089019586526008880154966101008a01978852610180600c60098b01549a6101208d019b8c52610140600a8201549d019c8d52610160600b8201549e019d8e5201549c019b8c526040519c8d525160208d01525160408c01525160608b01525160808a01525160a089015251151560c08801525160e08701525161010086015251610120850152516101408401525161016083015251610180820152f35b50346102d957806003193601126102d9576008546040516001600160a01b039091168152602090f35b50346102d95760203660031901126102d957613469614760565b612efe60043561381b565b50346102d95761348336613544565b61348f93929193614737565b600454821015610558578015613535578183526002602052600d6040842001936001600160401b038211613521576134c78286613706565b809484526020842094845b83811061350d575050907f519c48900aafa9dee70504bcef210ffbf24156b5747deb85561b452fddadf409916107a760405192839283613764565b6001906020833593019281890155016134d2565b634e487b7160e01b84526041600452602484fd5b637616640160e01b8352600483fd5b604060031982011261223557600435916024356001600160401b0381116122355782602382011215612235578060040135926001600160401b0384116122355760248460051b83010111612235576024019190565b602435906001600160a01b038216820361223557565b600435906001600160a01b038216820361223557565b604435906001600160a01b038216820361223557565b6040906003190112612235576004359060243590565b9181601f84011215612235578235916001600160401b038311612235576020838186019501011161223557565b90600382101561362b5752565b634e487b7160e01b600052602160045260246000fd5b906020808351928381520192019060005b81811061365f5750505090565b8251845260209384019390920191600101613652565b606090600319011261223557600435906024359060443590565b608090600319011261223557600435906024356001600160a01b038116810361223557906044359060643590565b81156136c7570490565b634e487b7160e01b600052601260045260246000fd5b818102929181159184041417156136f057565b634e487b7160e01b600052601160045260246000fd5b9068010000000000000000811161374e5781549181815582821061372957505050565b600052602060002091820191015b818110613742575050565b60008155600101613737565b634e487b7160e01b600052604160045260246000fd5b602080825281018390526001600160fb1b0383116122355760409260051b809284830137010190565b919082039182116136f057565b919082018092116136f057565b6101a081019081106001600160401b0382111761374e57604052565b61050081019081106001600160401b0382111761374e57604052565b60a081019081106001600160401b0382111761374e57604052565b90601f801991011681019081106001600160401b0382111761374e57604052565b6004549060009181101561062657808252600260209081526040808420838552600383528185203386529092528320919061385582614782565b6009600184015491015490670de0b6b3a764000061387383836136dd565b049060058501805492600487019081549081811161395d575b5050831561395357670de0b6b3a76400006138ab6138b6968a956136dd565b0490555533836148cd565b91826138c3575b50505050565b600981016138d284825461379a565b905542600c91909101556008546001600160a01b03169081156138bd57813b156104f757604051630916e12360e21b81523360048201526024810191909152604481019290925282908290606490829084905af1801561394857613938575b80806138bd565b81613942916137fa565b38613931565b6040513d84823e3d90fd5b5050505050505050565b61396c9295916130349161378d565b92388061388c565b803582526020808201359083015260408101356001600160a01b0381168103612235576001600160a01b03166040830152606081013561ffff811681036122355761ffff16606083015260808101358015158103612235571515608083015260a08101356001600160401b0381168091036122355760a083015260c081013563ffffffff81168091036122355760c083015260e090810135910152565b908060209392818452848401376000828201840152601f01601f1916010190565b8054821015613a4a5760005260206000200190600090565b634e487b7160e01b600052603260045260246000fd5b60001981146136f05760010190565b90929192600454821015613dd6576000918252600260209081526040808420600383528185206001600160a01b039094168552929091529091206008820154919082158015613dca575b613dc15760ff600b83015416600381101561362b5780613afe575093613af0613af592600c6001613afa97980154910154906136dd565b6136dd565b6136bd565b905b565b600093919290600203613c83579083918490601581015496600a82015493601460168401549301965b8a851080613c79575b15613c5d5760018a01808b11613c495762093a8081029080820462093a801490151715613c4957613b61908561379a565b613b6b868d61378d565b81881015613c3357613b7d888361378d565b9081811015613c2b57985b613b928d8c613a32565b90549060031b1c670de0b6b3a7640000810290808204670de0b6b3a76400001490151715613c1757613beb8b613be5613bf194670de0b6b3a7640000613bde62093a80859704856136dd565b049061379a565b9a61379a565b9961379a565b9814613c03575b505b95949395613b27565b99613c0f919750613a60565b989538613bf8565b634e487b7160e01b8d52601160045260248dfd5b508098613b88565b5099613c429197959650613a60565b9895613bfa565b634e487b7160e01b8a52601160045260248afd5b93509650975050613afa9550613af593506001915001546136dd565b5087548a10613b30565b949193929081958293601282015495869360118401995b83881080613db7575b15613d9c57613cb2888561378d565b898703613d8057613cc760138701544261378d565b62278d008b02908b820462278d00148c151715613c495790613ce89161378d565b62278d000362278d008111613d655780821015613d7957505b905b613d0d8a8d613a32565b90549060031b1c670de0b6b3a7640000810290808204670de0b6b3a76400001490151715613d655791613beb613d5892670de0b6b3a7640000613bde62278d00613d5e9704856136dd565b98613a60565b9796613c9a565b634e487b7160e01b89526011600452602489fd5b9050613d01565b62278d00811015613d92575b90613d03565b5062278d00613d8c565b955096509750505050613af591506001613afa9401546136dd565b508a548910613ca3565b50600093505050565b50600181015415613ab9565b6302721e1f60e61b60005260046000fd5b906040519182815491828252602082019060005260206000209260005b818110613e19575050613afc925003836137fa565b8454835260019485019487945060209093019201613e04565b600454811015613dd6576000526002602052604060002090600882015491821561404f5760ff600b82015416600381101561362b5780613ee35750600c01546301e187e08102908082046301e187e014901517156136f057670de0b6b3a764000091613e9d916136dd565b0490670de0b6b3a7640000820291808304670de0b6b3a764000014811517156136f05768056bc75e2d631000000291808304606414901517156136f057613afa916136bd565b91929160018103613f935750916000928390601160128201549101908154925b848110613f53575050505050670de0b6b3a7640000820291808304670de0b6b3a764000014811517156136f05768056bc75e2d631000000291808304606414901517156136f057613afa916136bd565b613f5d818361379a565b848110613f6e575b50600101613f03565b60019197613f7f613f8c9286613a32565b90549060031b1c9061379a565b9690613f65565b9193909291600203614046579291906000938491601460158501549401955b8184108061403c575b15613fe157613fd4613fd4613fda92613f7f888b613a32565b94613a60565b9392613fb2565b92509392509350670de0b6b3a7640000810290808204670de0b6b3a764000014901517156136f0576034810290808204603414901517156136f0576064810290808204606414901517156136f057613afa92613af5916136bd565b5086548510613fbb565b92505050600090565b505050600090565b90816020910312612235575190565b600454811015613dd657600052600260205260406000206140906005820154601e8301549061378d565b9060ff600b82015416600381101561362b576140dd57600c015480156140d0576140b9916136bd565b90620151806140c8834261379a565b920490600090565b5050600090600090600190565b9050600060118201906012825493015480925b8482106141395750501561412d576141079161378d565b9062278d0082029180830462278d0014901517156136f057620151806140c8834261379a565b50504290600090600090565b909161414b600191613f7f8585613a32565b9201906140f0565b600454811015613dd6576000526002602052604060002060048101549081156141a5576006015490670de0b6b3a7640000820291808304670de0b6b3a764000014901517156136f057613afa916136bd565b5050600090565b90929192600454821015613dd657604090826000526002602052816000209260005260036020528160002060009160018060a01b0316825260205220926008820154918215801561441e575b61441457600060ff600b830154166003811015614400576142975750670de0b6b3a764000061424385613af061424c96613af5859997613af0600198600c8a8f0154910154906136dd565b049401546136dd565b0480156141a557670de0b6b3a7640000820291808304670de0b6b3a764000014811517156136f05768056bc75e2d631000000291808304606414901517156136f057613afa916136bd565b919592949390829683946012830154968794601185019a5b848910806143f6575b156143c1576142c7898661378d565b8c8b890361439b57506142de60138801544261378d565b62278d008c02908c820462278d00148d15171561438757906142ff9161378d565b62278d000362278d008111613c49578b8e93926143289280821060001461438057505b93613a32565b90549060031b1c670de0b6b3a7640000810290808204670de0b6b3a76400001490151715613c495791613be561437392670de0b6b3a7640000613bde62278d006143799704856136dd565b99613a60565b98976142af565b9050614322565b634e487b7160e01b8b52601160045260248bfd5b91908b62278d008210156143b3576143289193613a32565b614328915062278d00614322565b819750613af0929a91939b50670de0b6b3a7640000995061424c9850600196508995506142439450613af590878c01546136dd565b508b548a106142b8565b634e487b7160e01b82526021600452602482fd5b5050505050600090565b506001850154156141f8565b90600454821015613dd6576000918252600260209081526040808420600383528185206001600160a01b039094168552929091529091206001810154801561404f57600983015492600a810154804211806145ac575b6144ae575b5050612182670de0b6b3a76400006144a2613afa956005946136dd565b0460048401549061378d565b426144c2600286015460038701549061379a565b4281106145a4575b508181116144d9575b50614485565b906144e69195929561378d565b60ff600b86015416600381101561362b57806145835750600c85015461450b916136dd565b905b6145206005860154601e8701549061378d565b80831161457b575b50670de0b6b3a7640000820291808304670de0b6b3a764000014901517156136f0576144a2600593614572670de0b6b3a764000093613034612182966008613afa9b0154906136bd565b965093506144d3565b915038614528565b60020361459a576145949085615213565b9061450d565b61459490856150e6565b9050386144ca565b5060088201541515614480565b356001600160a01b03811681036122355790565b3561ffff811681036122355790565b903590601e198136030182121561223557018035906001600160401b03821161223557602001918160051b3603831361223557565b9190811015613a4a5760051b0190565b90600454821015613dd6576000918252600260209081526040808420600383528185206001600160a01b039094168552929091529091206001810154919082156146c05780600360026146799301549101549061379a565b42811161468e57505060009160009190600090565b9092613afa6146b86127106146b061ffff6002600199015460a01c16876136dd565b04809561378d565b92429061378d565b505050600090600090600090600090565b51906001600160701b038216820361223557565b519063ffffffff8216820361223557565b908160609103126122355761470a816146d1565b91613afa604061471c602085016146d1565b93016146e5565b51906001600160a01b038216820361223557565b6000546001600160a01b0316330361474b57565b63118cdaa760e01b6000523360045260246000fd5b600260015414614771576002600155565b633ee5aeb560e01b60005260046000fd5b60005260026020526040600020600a81019081544211156148c957600881018054156148c2576147b383544261378d565b90600b83019160ff835416600381101561362b576002810361489e57506147da908461546c565b8092816147ec575b5050505050429055565b600585015491614802601e87019384549061378d565b80911161486b575b505061481783825461379a565b90555480614827575b80806147e2565b670de0b6b3a7640000820291808304670de0b6b3a764000014901517156136f057614857600991614861936136bd565b920191825461379a565b9055388080614820565b60ff919450935416600381101561362b5761488f576000600c8501555b388061480a565b60118401546012850155614888565b6001036148b4576148af9084615355565b6147da565b600c8401546148af916136dd565b5050429055565b5050565b80600052600260205260406000206005810154601d8201906148f18254809261378d565b808711614b08575b50906149078680949361379a565b9055601081015460ff16938480614af4575b80614ae7575b15614aa65781546005546149449185916001600160a01b039081169160281c16614cc9565b600554600f830180548454604051634a1bf19760e11b81526001600160a01b03868116600483018190526024830199909952426044830152606482019390935260289190911c8216608482015260a48101889052949192602091869160c4918391600091165af160009481614a72575b506149ca57631ec976db60e11b60005260046000fd5b7f776cf071b5d75e3a5be7d3fc5ebe49aa4637a2fbb058101b5a6b807fb14fd84694867f4c73f0593940bf99409cd6e7255f9a128e595dcf97881410f377aae3d79ddcbb614a6c968b614a37601c9754604051938493846040919493926060820195825260208201520152565b0390a301614a4687825461379a565b90555b6040805187815295151560208701526001600160a01b0390911694918291820190565b0390a390565b9094506020813d602011614a9e575b81614a8e602093836137fa565b81010312612235575193386149b4565b3d9150614a81565b614ae27f776cf071b5d75e3a5be7d3fc5ebe49aa4637a2fbb058101b5a6b807fb14fd8469382614a6c9460018060a01b03905460281c16614cc9565b614a49565b50600f820154151561491f565b506005546001600160a01b03161515614919565b955091908515614b1a579091386148f9565b505050505050600090565b6000526002602052604060002060018060a01b0360028201541690604051630240bc6b60e21b8152606081600481865afa918215614c7357600091600093614c7f575b506020600492939460405193848092630dfe168160e01b82525afa918215614c7357600092614c37575b50600101546001600160a01b03918216911603614c25576001600160701b0391821691165b81831015614c145782614bc9916136dd565b916103e88302928084046103e814901517156136f057614be89161378d565b6103e58102908082046103e514901517156136f057614c06916136bd565b600181018091116136f05790565b63bb55fd2760e01b60005260046000fd5b6001600160701b039081169116614bb7565b9091506020813d602011614c6b575b81614c53602093836137fa565b8101031261223557614c6490614723565b9038614b92565b3d9150614c46565b6040513d6000823e3d90fd5b6020935060049250614c9f9060603d6060116105465761053181836137fa565b5093909250614b68565b60ff60005460a01c16614cb857565b63d93c066560e01b60005260046000fd5b60405163a9059cbb60e01b60208201526001600160a01b039092166024830152604480830193909352918152613afc91614d046064836137fa565b615032565b614d5391926007916000526002602052604060002090614d398560018060a01b0360018501541630903390614e9c565b614d486006830191825461379a565b90550191825461379a565b9055565b91602191836000526002602052604060002093600052600360205260408060002060009060018060a01b03331682526020522060068101805460ff811615614e75575b50506001810192614db183855480614e285761379a565b84554260028301556003820155670de0b6b3a7640000614de86008870194614dda85875461379a565b8655546009880154906136dd565b04600482015560078101614dfd83825461379a565b9055600c42910155614e146023850191825461379a565b905554910180548211614e25575050565b55565b670de0b6b3a7640000614e3f60098b0154836136dd565b046004860154808211614e54575b505061379a565b614e5d9161378d565b614e6c6005870191825461379a565b90553880614e4d565b60ff1916600117905542600b820155602285018054614e9390613a60565b90553880614d9a565b6040516323b872dd60e01b60208201526001600160a01b039283166024820152929091166044830152606480830193909352918152613afc91614d046084836137fa565b6000526002602052604060002060018060a01b0360028201541690604051630240bc6b60e21b8152606081600481865afa918215614c7357600091600093615008575b506020600492939460405193848092630dfe168160e01b82525afa918215614c7357600092614fcc575b50600101546001600160a01b03918216911603614fba576001600160701b0380911691165b6103e58302928084046103e514901517156136f057614f9190836136dd565b906103e88102908082046103e814901517156136f057613afa92614fb49161379a565b906136bd565b6001600160701b039182169116614f72565b9091506020813d602011615000575b81614fe8602093836137fa565b8101031261223557614ff990614723565b9038614f4d565b3d9150614fdb565b60209350600492506150289060603d6060116105465761053181836137fa565b5093909250614f23565b906000602091828151910182855af115614c73576000513d61508457506001600160a01b0381163b155b6150635750565b635274afe760e01b60009081526001600160a01b0391909116600452602490fd5b6001141561505c565b60005260026020526150a5600d604060002001613de7565b9081519160005b8381106150bc5750505050600090565b8151811015613a4a578260208260051b84010151146150dd576001016150ac565b50505050600190565b91909160009160118201805491821561520857601284015493838510156151fc57600a81015491959194939160005b888110806151f3575b156151e9576013830154600187018088116136f05762278d0081029080820462278d0014901517156136f0576151539161379a565b9061515e818b61378d565b918061516a848b61379a565b116151a2575050906130346151959262278d006151878989613a32565b90549060031b1c04906136dd565b9587925b92969096615115565b9698926151e392506143736151dc9161303462278d006151ce6151c78f979e8e61378d565b968c613a32565b90549060031b1c04856136dd565b969761379a565b92615199565b5096505050505050565b5083861061511e565b50945050505050600090565b945050505050600090565b91909160009060148101805493841561520857601583015492858410156151fc5760009594959391600a82015492955b8886108061534c575b15615341576016830154600188018089116136f05762093a8081029080820462093a8014901517156136f0576152819161379a565b61528b878b61378d565b8186101561532b5788998798996152a2888561378d565b928381101561530b57998a6152d76152e39461303462093a806152c985976152dd97613a32565b90549060031b1c04846136dd565b9c61379a565b9761379a565b97146152f7575b505b969596949294615243565b97615303919650613a60565b9694386152ea565b5082998a6152d76152e39461303462093a806152c985976152dd97613a32565b50979661533a91969450613a60565b96946152ec565b509650505050505090565b5080871061524c565b90916000916011810190815490811561546157601281019182541015615461579392600093600a860154945b87811080615456575b1561544c576013870154845490600182018083116136f05762278d0081029080820462278d0014901517156136f0576153c29161379a565b916153cd818b61378d565b92806153d9858b61379a565b1161540557505050906130346153f89262278d00615187875489613a32565b9486915b91959095615381565b90976154469350614373839a9561303462278d0061543061542961543e968861378d565b978d613a32565b90549060031b1c04866136dd565b86559661379a565b916153fc565b5095509350505050565b50835485541161538a565b505050915050600090565b90916000906014830180549384156155af576015810190815493868510156155a25760009695969492600a83015493965b89871080615599575b1561558d57601684015460018901808a116136f05762093a8081029080820462093a8014901517156136f0576154db9161379a565b6154e5888c61378d565b8187101561557757899a88999a6154fc898561378d565b9283811015615557579a8b61552361552f9461303462093a806152c9859761552997613a32565b9d61379a565b9861379a565b9814615543575b505b97969795939561549d565b9861554f919750613a60565b979538615536565b50829a8b61552361552f9461303462093a806152c9859761552997613a32565b50989761558691979550613a60565b9795615538565b50945096505050505590565b508088106154a6565b9650505050505050600090565b50509250505060009056fea26469706673582212201648e32c816526d4e730bbaa61f9c242ec54852653d820a1b880239ae4135ba864736f6c634300081c0033",
  "linkReferences": {},
  "deployedLinkReferences": {}
}