{
  "_format": "hh-sol-artifact-1",
  "contractName": "VestingManager",
  "sourceName": "contracts/VestingManager.sol",
  "abi": [
    {
      "inputs": [
        {
          "internalType": "address",
          "name": "_poolManager",
          "type": "address"
        }
      ],
      "stateMutability": "nonpayable",
      "type": "constructor"
    },
    {
      "inputs": [],
      "name": "AlreadyRevoked",
      "type": "error"
    },
    {
      "inputs": [],
      "name": "InsufficientBalance",
      "type": "error"
    },
    {
      "inputs": [],
      "name": "InvalidAmount",
      "type": "error"
    },
    {
      "inputs": [],
      "name": "InvalidBeneficiary",
      "type": "error"
    },
    {
      "inputs": [],
      "name": "InvalidDuration",
      "type": "error"
    },
    {
      "inputs": [],
      "name": "InvalidToken",
      "type": "error"
    },
    {
      "inputs": [],
      "name": "NotAuthorized",
      "type": "error"
    },
    {
      "inputs": [],
      "name": "NotBeneficiary",
      "type": "error"
    },
    {
      "inputs": [],
      "name": "NothingToClaim",
      "type": "error"
    },
    {
      "inputs": [
        {
          "internalType": "address",
          "name": "owner",
          "type": "address"
        }
      ],
      "name": "OwnableInvalidOwner",
      "type": "error"
    },
    {
      "inputs": [
        {
          "internalType": "address",
          "name": "account",
          "type": "address"
        }
      ],
      "name": "OwnableUnauthorizedAccount",
      "type": "error"
    },
    {
      "inputs": [],
      "name": "ReentrancyGuardReentrantCall",
      "type": "error"
    },
    {
      "inputs": [
        {
          "internalType": "address",
          "name": "token",
          "type": "address"
        }
      ],
      "name": "SafeERC20FailedOperation",
      "type": "error"
    },
    {
      "inputs": [],
      "name": "VestingNotFound",
      "type": "error"
    },
    {
      "inputs": [],
      "name": "VestingNotStarted",
      "type": "error"
    },
    {
      "anonymous": false,
      "inputs": [
        {
          "indexed": true,
          "internalType": "address",
          "name": "creator",
          "type": "address"
        }
      ],
      "name": "AuthorizedCreatorAdded",
      "type": "event"
    },
    {
      "anonymous": false,
      "inputs": [
        {
          "indexed": true,
          "internalType": "address",
          "name": "creator",
          "type": "address"
        }
      ],
      "name": "AuthorizedCreatorRemoved",
      "type": "event"
    },
    {
      "anonymous": false,
      "inputs": [
        {
          "indexed": true,
          "internalType": "address",
          "name": "token",
          "type": "address"
        },
        {
          "indexed": false,
          "internalType": "uint256",
          "name": "amount",
          "type": "uint256"
        },
        {
          "indexed": true,
          "internalType": "address",
          "name": "to",
          "type": "address"
        }
      ],
      "name": "EmergencyWithdraw",
      "type": "event"
    },
    {
      "anonymous": false,
      "inputs": [
        {
          "indexed": true,
          "internalType": "address",
          "name": "previousOwner",
          "type": "address"
        },
        {
          "indexed": true,
          "internalType": "address",
          "name": "newOwner",
          "type": "address"
        }
      ],
      "name": "OwnershipTransferred",
      "type": "event"
    },
    {
      "anonymous": false,
      "inputs": [
        {
          "indexed": true,
          "internalType": "uint256",
          "name": "vestingId",
          "type": "uint256"
        },
        {
          "indexed": true,
          "internalType": "address",
          "name": "beneficiary",
          "type": "address"
        },
        {
          "indexed": true,
          "internalType": "address",
          "name": "token",
          "type": "address"
        },
        {
          "indexed": false,
          "internalType": "uint256",
          "name": "amount",
          "type": "uint256"
        }
      ],
      "name": "VestedClaimed",
      "type": "event"
    },
    {
      "anonymous": false,
      "inputs": [
        {
          "indexed": true,
          "internalType": "uint256",
          "name": "vestingId",
          "type": "uint256"
        },
        {
          "indexed": true,
          "internalType": "address",
          "name": "beneficiary",
          "type": "address"
        },
        {
          "indexed": true,
          "internalType": "address",
          "name": "token",
          "type": "address"
        },
        {
          "indexed": false,
          "internalType": "uint256",
          "name": "amount",
          "type": "uint256"
        },
        {
          "indexed": false,
          "internalType": "uint256",
          "name": "start",
          "type": "uint256"
        },
        {
          "indexed": false,
          "internalType": "uint256",
          "name": "duration",
          "type": "uint256"
        }
      ],
      "name": "VestingCreated",
      "type": "event"
    },
    {
      "anonymous": false,
      "inputs": [
        {
          "indexed": true,
          "internalType": "uint256",
          "name": "vestingId",
          "type": "uint256"
        },
        {
          "indexed": true,
          "internalType": "address",
          "name": "beneficiary",
          "type": "address"
        },
        {
          "indexed": false,
          "internalType": "uint256",
          "name": "amountVested",
          "type": "uint256"
        },
        {
          "indexed": false,
          "internalType": "uint256",
          "name": "amountRefunded",
          "type": "uint256"
        }
      ],
      "name": "VestingRevoked",
      "type": "event"
    },
    {
      "inputs": [
        {
          "internalType": "address",
          "name": "creator",
          "type": "address"
        }
      ],
      "name": "addAuthorizedCreator",
      "outputs": [],
      "stateMutability": "nonpayable",
      "type": "function"
    },
    {
      "inputs": [
        {
          "internalType": "address",
          "name": "",
          "type": "address"
        }
      ],
      "name": "authorizedCreators",
      "outputs": [
        {
          "internalType": "bool",
          "name": "",
          "type": "bool"
        }
      ],
      "stateMutability": "view",
      "type": "function"
    },
    {
      "inputs": [],
      "name": "claimAllVested",
      "outputs": [],
      "stateMutability": "nonpayable",
      "type": "function"
    },
    {
      "inputs": [
        {
          "internalType": "uint256",
          "name": "vestingId",
          "type": "uint256"
        }
      ],
      "name": "claimVested",
      "outputs": [],
      "stateMutability": "nonpayable",
      "type": "function"
    },
    {
      "inputs": [
        {
          "internalType": "address",
          "name": "beneficiary",
          "type": "address"
        },
        {
          "internalType": "uint256",
          "name": "amount",
          "type": "uint256"
        },
        {
          "internalType": "uint256",
          "name": "start",
          "type": "uint256"
        },
        {
          "internalType": "uint256",
          "name": "duration",
          "type": "uint256"
        },
        {
          "internalType": "address",
          "name": "token",
          "type": "address"
        },
        {
          "internalType": "uint256",
          "name": "poolId",
          "type": "uint256"
        }
      ],
      "name": "createVesting",
      "outputs": [
        {
          "internalType": "uint256",
          "name": "vestingId",
          "type": "uint256"
        }
      ],
      "stateMutability": "nonpayable",
      "type": "function"
    },
    {
      "inputs": [
        {
          "internalType": "address",
          "name": "beneficiary",
          "type": "address"
        },
        {
          "internalType": "address",
          "name": "token",
          "type": "address"
        },
        {
          "internalType": "uint256",
          "name": "amount",
          "type": "uint256"
        },
        {
          "internalType": "uint256",
          "name": "start",
          "type": "uint256"
        },
        {
          "internalType": "uint256",
          "name": "duration",
          "type": "uint256"
        },
        {
          "internalType": "uint256",
          "name": "poolId",
          "type": "uint256"
        }
      ],
      "name": "createVestingWithToken",
      "outputs": [
        {
          "internalType": "uint256",
          "name": "vestingId",
          "type": "uint256"
        }
      ],
      "stateMutability": "nonpayable",
      "type": "function"
    },
    {
      "inputs": [
        {
          "internalType": "address",
          "name": "token",
          "type": "address"
        },
        {
          "internalType": "uint256",
          "name": "amount",
          "type": "uint256"
        },
        {
          "internalType": "address",
          "name": "to",
          "type": "address"
        }
      ],
      "name": "emergencyWithdraw",
      "outputs": [],
      "stateMutability": "nonpayable",
      "type": "function"
    },
    {
      "inputs": [
        {
          "internalType": "uint256",
          "name": "vestingId",
          "type": "uint256"
        }
      ],
      "name": "getClaimableAmount",
      "outputs": [
        {
          "internalType": "uint256",
          "name": "claimable",
          "type": "uint256"
        }
      ],
      "stateMutability": "view",
      "type": "function"
    },
    {
      "inputs": [
        {
          "internalType": "address",
          "name": "token",
          "type": "address"
        }
      ],
      "name": "getTokenStats",
      "outputs": [
        {
          "internalType": "uint256",
          "name": "totalVested",
          "type": "uint256"
        },
        {
          "internalType": "uint256",
          "name": "totalClaimed",
          "type": "uint256"
        },
        {
          "internalType": "uint256",
          "name": "balance",
          "type": "uint256"
        }
      ],
      "stateMutability": "view",
      "type": "function"
    },
    {
      "inputs": [
        {
          "internalType": "address",
          "name": "user",
          "type": "address"
        }
      ],
      "name": "getTotalClaimable",
      "outputs": [
        {
          "internalType": "uint256",
          "name": "totalClaimable",
          "type": "uint256"
        }
      ],
      "stateMutability": "view",
      "type": "function"
    },
    {
      "inputs": [
        {
          "internalType": "address",
          "name": "user",
          "type": "address"
        }
      ],
      "name": "getUserVestingCount",
      "outputs": [
        {
          "internalType": "uint256",
          "name": "count",
          "type": "uint256"
        }
      ],
      "stateMutability": "view",
      "type": "function"
    },
    {
      "inputs": [
        {
          "internalType": "address",
          "name": "user",
          "type": "address"
        }
      ],
      "name": "getUserVestingIds",
      "outputs": [
        {
          "internalType": "uint256[]",
          "name": "vestingIds",
          "type": "uint256[]"
        }
      ],
      "stateMutability": "view",
      "type": "function"
    },
    {
      "inputs": [
        {
          "internalType": "address",
          "name": "user",
          "type": "address"
        }
      ],
      "name": "getUserVestings",
      "outputs": [
        {
          "components": [
            {
              "internalType": "address",
              "name": "beneficiary",
              "type": "address"
            },
            {
              "internalType": "address",
              "name": "token",
              "type": "address"
            },
            {
              "internalType": "uint256",
              "name": "poolId",
              "type": "uint256"
            },
            {
              "internalType": "uint256",
              "name": "amount",
              "type": "uint256"
            },
            {
              "internalType": "uint256",
              "name": "start",
              "type": "uint256"
            },
            {
              "internalType": "uint256",
              "name": "duration",
              "type": "uint256"
            },
            {
              "internalType": "uint256",
              "name": "claimed",
              "type": "uint256"
            },
            {
              "internalType": "bool",
              "name": "revoked",
              "type": "bool"
            }
          ],
          "internalType": "struct VestingManager.VestingSchedule[]",
          "name": "schedules",
          "type": "tuple[]"
        },
        {
          "internalType": "uint256[]",
          "name": "claimableAmounts",
          "type": "uint256[]"
        }
      ],
      "stateMutability": "view",
      "type": "function"
    },
    {
      "inputs": [
        {
          "internalType": "uint256",
          "name": "vestingId",
          "type": "uint256"
        }
      ],
      "name": "getVestedAmount",
      "outputs": [
        {
          "internalType": "uint256",
          "name": "vested",
          "type": "uint256"
        }
      ],
      "stateMutability": "view",
      "type": "function"
    },
    {
      "inputs": [
        {
          "internalType": "uint256",
          "name": "vestingId",
          "type": "uint256"
        }
      ],
      "name": "getVestingInfo",
      "outputs": [
        {
          "components": [
            {
              "internalType": "address",
              "name": "beneficiary",
              "type": "address"
            },
            {
              "internalType": "address",
              "name": "token",
              "type": "address"
            },
            {
              "internalType": "uint256",
              "name": "poolId",
              "type": "uint256"
            },
            {
              "internalType": "uint256",
              "name": "amount",
              "type": "uint256"
            },
            {
              "internalType": "uint256",
              "name": "start",
              "type": "uint256"
            },
            {
              "internalType": "uint256",
              "name": "duration",
              "type": "uint256"
            },
            {
              "internalType": "uint256",
              "name": "claimed",
              "type": "uint256"
            },
            {
              "internalType": "bool",
              "name": "revoked",
              "type": "bool"
            }
          ],
          "internalType": "struct VestingManager.VestingSchedule",
          "name": "schedule",
          "type": "tuple"
        }
      ],
      "stateMutability": "view",
      "type": "function"
    },
    {
      "inputs": [],
      "name": "nextVestingId",
      "outputs": [
        {
          "internalType": "uint256",
          "name": "",
          "type": "uint256"
        }
      ],
      "stateMutability": "view",
      "type": "function"
    },
    {
      "inputs": [],
      "name": "owner",
      "outputs": [
        {
          "internalType": "address",
          "name": "",
          "type": "address"
        }
      ],
      "stateMutability": "view",
      "type": "function"
    },
    {
      "inputs": [],
      "name": "poolManager",
      "outputs": [
        {
          "internalType": "contract IPoolManager",
          "name": "",
          "type": "address"
        }
      ],
      "stateMutability": "view",
      "type": "function"
    },
    {
      "inputs": [
        {
          "internalType": "address",
          "name": "creator",
          "type": "address"
        }
      ],
      "name": "removeAuthorizedCreator",
      "outputs": [],
      "stateMutability": "nonpayable",
      "type": "function"
    },
    {
      "inputs": [],
      "name": "renounceOwnership",
      "outputs": [],
      "stateMutability": "nonpayable",
      "type": "function"
    },
    {
      "inputs": [
        {
          "internalType": "uint256",
          "name": "vestingId",
          "type": "uint256"
        }
      ],
      "name": "revokeVesting",
      "outputs": [],
      "stateMutability": "nonpayable",
      "type": "function"
    },
    {
      "inputs": [
        {
          "internalType": "address",
          "name": "",
          "type": "address"
        }
      ],
      "name": "totalClaimedAmount",
      "outputs": [
        {
          "internalType": "uint256",
          "name": "",
          "type": "uint256"
        }
      ],
      "stateMutability": "view",
      "type": "function"
    },
    {
      "inputs": [
        {
          "internalType": "address",
          "name": "",
          "type": "address"
        }
      ],
      "name": "totalVestedAmount",
      "outputs": [
        {
          "internalType": "uint256",
          "name": "",
          "type": "uint256"
        }
      ],
      "stateMutability": "view",
      "type": "function"
    },
    {
      "inputs": [
        {
          "internalType": "address",
          "name": "newOwner",
          "type": "address"
        }
      ],
      "name": "transferOwnership",
      "outputs": [],
      "stateMutability": "nonpayable",
      "type": "function"
    },
    {
      "inputs": [
        {
          "internalType": "address",
          "name": "",
          "type": "address"
        },
        {
          "internalType": "uint256",
          "name": "",
          "type": "uint256"
        }
      ],
      "name": "userVestingIds",
      "outputs": [
        {
          "internalType": "uint256",
          "name": "",
          "type": "uint256"
        }
      ],
      "stateMutability": "view",
      "type": "function"
    },
    {
      "inputs": [
        {
          "internalType": "uint256",
          "name": "",
          "type": "uint256"
        }
      ],
      "name": "vestingSchedules",
      "outputs": [
        {
          "internalType": "address",
          "name": "beneficiary",
          "type": "address"
        },
        {
          "internalType": "address",
          "name": "token",
          "type": "address"
        },
        {
          "internalType": "uint256",
          "name": "poolId",
          "type": "uint256"
        },
        {
          "internalType": "uint256",
          "name": "amount",
          "type": "uint256"
        },
        {
          "internalType": "uint256",
          "name": "start",
          "type": "uint256"
        },
        {
          "internalType": "uint256",
          "name": "duration",
          "type": "uint256"
        },
        {
          "internalType": "uint256",
          "name": "claimed",
          "type": "uint256"
        },
        {
          "internalType": "bool",
          "name": "revoked",
          "type": "bool"
        }
      ],
      "stateMutability": "view",
      "type": "function"
    }
  ],
  "bytecode": "0x6080346100e757601f61166c38819003918201601f19168301916001600160401b038311848410176100ec578084926020946040528339810103126100e757516001600160a01b038116908190036100e75733156100d15760008054336001600160a01b0319821681178355604051939290916001600160a01b0316907f8be0079c531659141344cd1fd0a4f28419497f9722a3daafe3b4186f6b6457e09080a360018055806100b7575b5061156990816101038239f35b600280546001600160a01b031916919091179055386100aa565b631e4fbdf760e01b600052600060045260246000fd5b600080fd5b634e487b7160e01b600052604160045260246000fdfe608080604052600436101561001357600080fd5b60003560e01c908163128a3457146110ed575080631720b8c014611062578063204fd3b414610f4557806320f6b0a914610f01578063267e8ab614610e1a5780632e5dbf4414610dc15780634908d1a814610c42578063495f3d2714610c245780635120bcf214610bea578063551512de14610b505780635fbbae7414610aea5780636d3cbe2114610a5c5780637090eba81461088a578063715018a6146108315780637d8ca242146108135780638b602122146107b45780638da5cb5b1461078b5780639437e32e14610535578063c695502a146104f6578063ca008147146104bc578063ca88d5c5146103ea578063cafeedf6146103a2578063dc00b4b114610321578063dc4c90d3146102f8578063dd128200146101cb5763f2fde38b1461013d57600080fd5b346101c65760203660031901126101c657610156611123565b61015e61150a565b6001600160a01b031680156101b057600080546001600160a01b03198116831782556001600160a01b0316907f8be0079c531659141344cd1fd0a4f28419497f9722a3daafe3b4186f6b6457e09080a3005b631e4fbdf760e01b600052600060045260246000fd5b600080fd5b346101c65760203660031901126101c6576004356101e761150a565b6101ef6113df565b600081815260036020526040902080549091906001600160a01b0316156102e7576007820180549260ff84166102d6577fc676b7fd6b2d616c8b16215f8e5f9b031a38a2debef938763c7febf4ae05af8f918161025561025060409461124d565b611401565b9160016102668460038501546112b8565b9760ff191617905585610290575b60018060a01b039054169482519182526020820152a360018055005b6102d1866001830160018060a01b038154166000526007602052856000206102b98382546112b8565b9055546000546001600160a01b039081169116611479565b610274565b63905e710760e01b60005260046000fd5b63e146a52b60e01b60005260046000fd5b346101c65760003660031901126101c6576002546040516001600160a01b039091168152602090f35b346101c65760203660031901126101c65761033a611123565b61034261150a565b6001600160a01b03168015610391578060005260066020526040600020600160ff198254161790557fe71a6cb5c71729781e9ba55e6554e05f6fedcf36c0ae3859c9a980f0fceb141a600080a2005b631559b7d760e21b60005260046000fd5b346101c65760203660031901126101c657600435600090815260036020526040902080546001600160a01b0316156102e7576103e261025060209261124d565b604051908152f35b346101c65760203660031901126101c6576001600160a01b0361040b611123565b168060005260076020526040600020548160005260086020526024602060406000205493604051928380926370a0823160e01b82523060048301525afa80156104b05760009061047c575b6104789150604051938493846040919493926060820195825260208201520152565b0390f35b506020813d6020116104a8575b816104966020938361122b565b810103126101c6576104789051610456565b3d9150610489565b6040513d6000823e3d90fd5b346101c65760203660031901126101c6576001600160a01b036104dd611123565b1660005260046020526020604060002054604051908152f35b346101c65760203660031901126101c6576001600160a01b03610517611123565b166000526006602052602060ff604060002054166040519015158152f35b346101c65760c03660031901126101c65761054e611123565b60243590604435906084356001600160a01b03811691606435918390036101c65733600052600660205260ff604060002054161580610776575b610765576105946113df565b6001600160a01b0316908115610391578215610754578415610743578015610732577f882efc51e572b56dc96405452484e2d05dff4fa689ec46fa92a355639075de2d610723946020966005549687946105ed86611396565b6005556106d66040516105ff816111f8565b8881526007888d83018c81526040840160a43581526060850189815260808601908b825260a087019289845260c08801946000865260e08901966000885260005260206003905260406000209860018060a01b039060018060a01b03905116166bffffffffffffffffffffffff60a01b8a541617895560018060a01b03905116600189019060018060a01b03166bffffffffffffffffffffffff60a01b82541617905551600288015551600387015551600486015551600585015551600684015551151591019060ff801983541691151516179055565b8660005260048a526106ec8660406000206113a5565b8760005260078a5260406000206107048482546112db565b9055604051938493846040919493926060820195825260208201520152565b0390a460018055604051908152f35b637616640160e01b60005260046000fd5b63162908e360e11b60005260046000fd5b63c1ab6dc160e01b60005260046000fd5b63ea8e4eb560e01b60005260046000fd5b506000546001600160a01b0316331415610588565b346101c65760003660031901126101c6576000546040516001600160a01b039091168152602090f35b346101c65760c03660031901126101c6576107cd611123565b6024356001600160a01b03811691908290036101c65760443591606435916084359033600052600660205260ff60406000205416158061077657610765576105946113df565b346101c65760203660031901126101c65760206103e2600435611351565b346101c65760003660031901126101c65761084a61150a565b600080546001600160a01b0319811682556001600160a01b03167f8be0079c531659141344cd1fd0a4f28419497f9722a3daafe3b4186f6b6457e08280a3005b346101c65760203660031901126101c6576001600160a01b036108ab611123565b16600052600460205260406000206040518082602082945493848152019060005260206000209260005b818110610a435750506108ea9250038261122b565b80516108f581611339565b90610903604051928361122b565b808252601f1961091282611339565b0160005b818110610a2c57505061092881611339565b90610936604051928361122b565b808252601f1961094582611339565b0136602084013760005b8181106109b1575050604051906040820160408352835180915260206060840194019060005b81811061099057848061047888878382036020850152611139565b9091946020610100826109a66001948a5161116d565b019601929101610975565b806109be60019287611325565b51600052600360205260406000206109d58161124d565b6109df8388611325565b526109ea8287611325565b5060ff60078201541615610a00575b500161094f565b806006610a12610250610a1b9461124d565b910154906112b8565b610a258286611325565b52866109f9565b602090610a376112e8565b82828701015201610916565b84548352600194850194869450602090930192016108d5565b346101c65760203660031901126101c6576004356000526003602052610100604060002060018060a01b038154169060018060a01b03600182015416906002810154600382015460048301549060058401549260ff600760068701549601541695604051978852602088015260408701526060860152608085015260a084015260c0830152151560e0820152f35b346101c65760203660031901126101c657610b03611123565b610b0b61150a565b6001600160a01b03166000818152600660205260408120805460ff191690557f9ebf0a8042bcf80050c24e0cbf6d0c4e9cde8bff932290c86be5db665af5e2989080a2005b346101c65760603660031901126101c657610b69611123565b6044356001600160a01b03811691602435908383036101c657610b8a61150a565b610b926113df565b6001600160a01b03169182156107545781156107435783156103915781610bdd7faaeda929aa102e867049528ec7cd2499e3a2f8846e736ae7935f234dfbf500d99360209386611479565b604051908152a360018055005b346101c65760203660031901126101c6576001600160a01b03610c0b611123565b1660005260076020526020604060002054604051908152f35b346101c65760003660031901126101c6576020600554604051908152f35b346101c65760003660031901126101c657610c5b6113df565b33600052600460205260406000206040518082602082945493848152019060005260206000209260005b818110610da8575050610c9a9250038261122b565b60005b8151811015610da25780610cb360019284611325565b51806000526003602052604060002060ff6007820154168015610d90575b610d8957610ce16102508261124d565b6006820191610cf2835480936112b8565b9283610d05575b50505050505b01610c9d565b610d108488946112db565b905501848060a01b0381541660005260086020526040600020610d348382546112db565b9055610d498233878060a01b03845416611479565b848060a01b03905416916040519182527fe261cd4835989ffd66963fb5af2920360519ab03d4ac2378ddd4bd694df5a57c60203393a48380808080610cf9565b5050610cff565b50600681015460038201541115610cd1565b60018055005b8454835260019485019486945060209093019201610c85565b346101c65760403660031901126101c657610dda611123565b6001600160a01b03166000908152600460205260409020805460243591908210156101c657602091610e0b916111ca565b90549060031b1c604051908152f35b346101c65760203660031901126101c657610e33611123565b60009060018060a01b0316600052600460205260406000206040518082602082945493848152019060005260206000209260005b818110610ee8575050610e7c9250038261122b565b60005b8151811015610edd57610e928183611325565b516000526003602052604060002060ff60078201541615610eb7575b50600101610e7f565b60019193610ed0826006610a12610250610ed69661124d565b906112db565b9290610eae565b602083604051908152f35b8454835260019485019486945060209093019201610e67565b346101c65760203660031901126101c657610f1a6112e8565b506004356000526003602052610100610f36604060002061124d565b610f43604051809261116d565bf35b346101c65760203660031901126101c657600435610f616113df565b600081815260036020526040902080546001600160a01b031680156102e75733036110515760ff6007820154166102d657610f9e6102508261124d565b6006820191610faf835480936112b8565b92831561104057610fc2846001946112db565b90550160018060a01b0381541660005260086020526040600020610fe78382546112db565b9055805461100190839033906001600160a01b0316611479565b546040519182526001600160a01b03169133917fe261cd4835989ffd66963fb5af2920360519ab03d4ac2378ddd4bd694df5a57c90602090a460018055005b6312d37ee560e31b60005260046000fd5b63644d871f60e01b60005260046000fd5b346101c65760203660031901126101c6576001600160a01b03611083611123565b166000526004602052604060002060405190816020825491828152019160005260206000209060005b8181106110d757610478856110c38187038261122b565b604051918291602083526020830190611139565b82548452602090930192600192830192016110ac565b346101c65760203660031901126101c6576020906001600160a01b03611111611123565b16600052600882526040600020548152f35b600435906001600160a01b03821682036101c657565b906020808351928381520192019060005b8181106111575750505090565b825184526020938401939092019160010161114a565b60e0809160018060a01b03815116845260018060a01b03602082015116602085015260408101516040850152606081015160608501526080810151608085015260a081015160a085015260c081015160c085015201511515910152565b80548210156111e25760005260206000200190600090565b634e487b7160e01b600052603260045260246000fd5b610100810190811067ffffffffffffffff82111761121557604052565b634e487b7160e01b600052604160045260246000fd5b90601f8019910116810190811067ffffffffffffffff82111761121557604052565b9060405161125a816111f8565b82546001600160a01b0390811682526001840154166020820152600283015460408201526003830154606082015260048301546080820152600583015460a0820152600683015460c082015260079092015460ff16151560e0830152565b919082039182116112c557565b634e487b7160e01b600052601160045260246000fd5b919082018092116112c557565b604051906112f5826111f8565b600060e0838281528260208201528260408201528260608201528260808201528260a08201528260c08201520152565b80518210156111e25760209160051b010190565b67ffffffffffffffff81116112155760051b60200190565b600090815260036020526040902080546001600160a01b0316156102e75760ff60078201541661139057806006610a1261025061138d9461124d565b90565b50600090565b60001981146112c55760010190565b805468010000000000000000811015611215576113c7916001820181556111ca565b819291549060031b91821b91600019901b1916179055565b6002600154146113f0576002600155565b633ee5aeb560e01b60005260046000fd5b608081018051908142106114715761141f60a08401928351906112db565b4210156114685761143360609151426112b8565b9201518281029281840414901517156112c55751908115611452570490565b634e487b7160e01b600052601260045260246000fd5b50506060015190565b505050600090565b60405163a9059cbb60e01b60208281019182526001600160a01b03909416602483015260448083019590955293815290926000916114b860648261122b565b519082855af1156104b0576000513d61150157506001600160a01b0381163b155b6114e05750565b635274afe760e01b60009081526001600160a01b0391909116600452602490fd5b600114156114d9565b6000546001600160a01b0316330361151e57565b63118cdaa760e01b6000523360045260246000fdfea2646970667358221220f0fd973cd7e21fc7faad803999644595d1288237a014b3d954c67327a712cd7f64736f6c634300081c0033",
  "linkReferences": {},
  "deployedLinkReferences": {}
}