{
  "_format": "hh-sol-artifact-1",
  "contractName": "MockUniswapV2Router",
  "sourceName": "contracts/test/MockUniswapV2Router.sol",
  "abi": [
    {
      "inputs": [
        {
          "internalType": "uint256",
          "name": "amountOut",
          "type": "uint256"
        },
        {
          "internalType": "uint256",
          "name": "reserveIn",
          "type": "uint256"
        },
        {
          "internalType": "uint256",
          "name": "reserveOut",
          "type": "uint256"
        }
      ],
      "name": "getAmountIn",
      "outputs": [
        {
          "internalType": "uint256",
          "name": "amountIn",
          "type": "uint256"
        }
      ],
      "stateMutability": "pure",
      "type": "function"
    },
    {
      "inputs": [
        {
          "internalType": "uint256",
          "name": "amountIn",
          "type": "uint256"
        },
        {
          "internalType": "uint256",
          "name": "reserveIn",
          "type": "uint256"
        },
        {
          "internalType": "uint256",
          "name": "reserveOut",
          "type": "uint256"
        }
      ],
      "name": "getAmountOut",
      "outputs": [
        {
          "internalType": "uint256",
          "name": "amountOut",
          "type": "uint256"
        }
      ],
      "stateMutability": "pure",
      "type": "function"
    }
  ],
  "bytecode": "0x608080604052346015576102ad908161001b8239f35b600080fdfe608080604052600436101561001357600080fd5b60003560e01c908163054d50d41461012457506385f8c2591461003557600080fd5b3461011f57610043366101e5565b919081156100da578181610067921515806100d1575b610062906101ff565b610244565b916103e88302928084046103e814901517156100bb57818103918183116100bb576103e583029283046103e514911417156100bb576100a591610257565b600181018091116100bb57602090604051908152f35b634e487b7160e01b600052601160045260246000fd5b50841515610059565b60405162461bcd60e51b815260206004820152601a60248201527f494e53554646494349454e545f4f55545055545f414d4f554e540000000000006044820152606490fd5b600080fd5b3461011f57610132366101e5565b91909281156101a3575082159182158061019a575b610150906101ff565b6103e582029182046103e5036100bb5761016a9082610244565b916103e884029384046103e81417156100bb5782018092116100bb5760209161019291610257565b604051908152f35b50801515610147565b62461bcd60e51b815260206004820152601960248201527f494e53554646494349454e545f494e5055545f414d4f554e54000000000000006044820152606490fd5b606090600319011261011f57600435906024359060443590565b1561020657565b60405162461bcd60e51b8152602060048201526016602482015275494e53554646494349454e545f4c495155494449545960501b6044820152606490fd5b818102929181159184041417156100bb57565b8115610261570490565b634e487b7160e01b600052601260045260246000fdfea2646970667358221220469be61c9d8a3a413024c43a8eea586f697e361749e81b04c1ce45da2ca8569c64736f6c634300081c0033",
  "linkReferences": {},
  "deployedLinkReferences": {}
}