{
  "_format": "hh-sol-artifact-1",
  "contractName": "ReferralModule",
  "sourceName": "contracts/ReferralModule.sol",
  "abi": [
    {
      "inputs": [],
      "stateMutability": "nonpayable",
      "type": "constructor"
    },
    {
      "inputs": [],
      "name": "AlreadyClaimed",
      "type": "error"
    },
    {
      "inputs": [],
      "name": "CyclicReferral",
      "type": "error"
    },
    {
      "inputs": [],
      "name": "EpochAlreadyExists",
      "type": "error"
    },
    {
      "inputs": [],
      "name": "EpochNotExpired",
      "type": "error"
    },
    {
      "inputs": [],
      "name": "EpochNotFound",
      "type": "error"
    },
    {
      "inputs": [],
      "name": "EpochNotFunded",
      "type": "error"
    },
    {
      "inputs": [],
      "name": "InsufficientBalance",
      "type": "error"
    },
    {
      "inputs": [],
      "name": "InvalidAddress",
      "type": "error"
    },
    {
      "inputs": [],
      "name": "InvalidAmount",
      "type": "error"
    },
    {
      "inputs": [],
      "name": "InvalidConfig",
      "type": "error"
    },
    {
      "inputs": [],
      "name": "InvalidProof",
      "type": "error"
    },
    {
      "inputs": [],
      "name": "InvalidSignature",
      "type": "error"
    },
    {
      "inputs": [
        {
          "internalType": "address",
          "name": "owner",
          "type": "address"
        }
      ],
      "name": "OwnableInvalidOwner",
      "type": "error"
    },
    {
      "inputs": [
        {
          "internalType": "address",
          "name": "account",
          "type": "address"
        }
      ],
      "name": "OwnableUnauthorizedAccount",
      "type": "error"
    },
    {
      "inputs": [],
      "name": "ReentrancyGuardReentrantCall",
      "type": "error"
    },
    {
      "inputs": [],
      "name": "ReferrerAlreadySet",
      "type": "error"
    },
    {
      "inputs": [
        {
          "internalType": "address",
          "name": "token",
          "type": "address"
        }
      ],
      "name": "SafeERC20FailedOperation",
      "type": "error"
    },
    {
      "inputs": [],
      "name": "SelfReferral",
      "type": "error"
    },
    {
      "inputs": [],
      "name": "TransferFailed",
      "type": "error"
    },
    {
      "inputs": [],
      "name": "UnauthorizedCaller",
      "type": "error"
    },
    {
      "anonymous": false,
      "inputs": [
        {
          "indexed": true,
          "internalType": "address",
          "name": "referrer",
          "type": "address"
        },
        {
          "indexed": false,
          "internalType": "uint256",
          "name": "amount",
          "type": "uint256"
        },
        {
          "indexed": true,
          "internalType": "address",
          "name": "to",
          "type": "address"
        }
      ],
      "name": "DirectAccrualWithdrawn",
      "type": "event"
    },
    {
      "anonymous": false,
      "inputs": [
        {
          "indexed": true,
          "internalType": "address",
          "name": "referrer",
          "type": "address"
        },
        {
          "indexed": true,
          "internalType": "address",
          "name": "buyer",
          "type": "address"
        },
        {
          "indexed": true,
          "internalType": "uint256",
          "name": "poolId",
          "type": "uint256"
        },
        {
          "indexed": false,
          "internalType": "uint256",
          "name": "stakedAmount",
          "type": "uint256"
        },
        {
          "indexed": false,
          "internalType": "uint256",
          "name": "amount",
          "type": "uint256"
        },
        {
          "indexed": false,
          "internalType": "bytes32",
          "name": "codeHash",
          "type": "bytes32"
        }
      ],
      "name": "DirectCommissionAccrued",
      "type": "event"
    },
    {
      "anonymous": false,
      "inputs": [
        {
          "indexed": true,
          "internalType": "address",
          "name": "referrer",
          "type": "address"
        },
        {
          "indexed": true,
          "internalType": "address",
          "name": "buyer",
          "type": "address"
        },
        {
          "indexed": true,
          "internalType": "uint256",
          "name": "poolId",
          "type": "uint256"
        },
        {
          "indexed": false,
          "internalType": "uint256",
          "name": "stakedAmount",
          "type": "uint256"
        },
        {
          "indexed": false,
          "internalType": "uint256",
          "name": "amount",
          "type": "uint256"
        },
        {
          "indexed": false,
          "internalType": "bytes32",
          "name": "codeHash",
          "type": "bytes32"
        }
      ],
      "name": "DirectCommissionPaid",
      "type": "event"
    },
    {
      "anonymous": false,
      "inputs": [
        {
          "indexed": true,
          "internalType": "address",
          "name": "previousOwner",
          "type": "address"
        },
        {
          "indexed": true,
          "internalType": "address",
          "name": "newOwner",
          "type": "address"
        }
      ],
      "name": "OwnershipTransferred",
      "type": "event"
    },
    {
      "anonymous": false,
      "inputs": [
        {
          "indexed": true,
          "internalType": "uint256",
          "name": "poolId",
          "type": "uint256"
        },
        {
          "indexed": false,
          "internalType": "uint16[]",
          "name": "mlBps",
          "type": "uint16[]"
        }
      ],
      "name": "PoolLevelConfigSet",
      "type": "event"
    },
    {
      "anonymous": false,
      "inputs": [
        {
          "indexed": true,
          "internalType": "address",
          "name": "poolManager",
          "type": "address"
        }
      ],
      "name": "PoolManagerSet",
      "type": "event"
    },
    {
      "anonymous": false,
      "inputs": [
        {
          "indexed": true,
          "internalType": "uint256",
          "name": "epochId",
          "type": "uint256"
        },
        {
          "indexed": true,
          "internalType": "address",
          "name": "claimer",
          "type": "address"
        },
        {
          "indexed": false,
          "internalType": "address",
          "name": "token",
          "type": "address"
        },
        {
          "indexed": false,
          "internalType": "uint256",
          "name": "amount",
          "type": "uint256"
        }
      ],
      "name": "ReferralPayoutClaimed",
      "type": "event"
    },
    {
      "anonymous": false,
      "inputs": [
        {
          "indexed": true,
          "internalType": "uint256",
          "name": "epochId",
          "type": "uint256"
        },
        {
          "indexed": true,
          "internalType": "bytes32",
          "name": "root",
          "type": "bytes32"
        },
        {
          "indexed": false,
          "internalType": "address",
          "name": "token",
          "type": "address"
        },
        {
          "indexed": false,
          "internalType": "uint256",
          "name": "totalAmount",
          "type": "uint256"
        },
        {
          "indexed": false,
          "internalType": "uint64",
          "name": "expiry",
          "type": "uint64"
        }
      ],
      "name": "ReferralPayoutRootSubmitted",
      "type": "event"
    },
    {
      "anonymous": false,
      "inputs": [
        {
          "indexed": true,
          "internalType": "address",
          "name": "referralVoucher",
          "type": "address"
        }
      ],
      "name": "ReferralVoucherSet",
      "type": "event"
    },
    {
      "anonymous": false,
      "inputs": [
        {
          "indexed": true,
          "internalType": "address",
          "name": "buyer",
          "type": "address"
        },
        {
          "indexed": true,
          "internalType": "address",
          "name": "referrer",
          "type": "address"
        },
        {
          "indexed": false,
          "internalType": "bytes32",
          "name": "codeHash",
          "type": "bytes32"
        }
      ],
      "name": "ReferrerLinked",
      "type": "event"
    },
    {
      "anonymous": false,
      "inputs": [
        {
          "indexed": true,
          "internalType": "address",
          "name": "claimant",
          "type": "address"
        },
        {
          "indexed": true,
          "internalType": "uint256",
          "name": "poolId",
          "type": "uint256"
        },
        {
          "indexed": false,
          "internalType": "uint256",
          "name": "rewardAmount",
          "type": "uint256"
        },
        {
          "indexed": false,
          "internalType": "uint256",
          "name": "timestamp",
          "type": "uint256"
        }
      ],
      "name": "RewardClaimRecorded",
      "type": "event"
    },
    {
      "anonymous": false,
      "inputs": [
        {
          "indexed": true,
          "internalType": "uint256",
          "name": "epochId",
          "type": "uint256"
        },
        {
          "indexed": true,
          "internalType": "address",
          "name": "to",
          "type": "address"
        },
        {
          "indexed": false,
          "internalType": "uint256",
          "name": "amount",
          "type": "uint256"
        }
      ],
      "name": "UnclaimedFundsWithdrawn",
      "type": "event"
    },
    {
      "inputs": [],
      "name": "BPS_DENOM",
      "outputs": [
        {
          "internalType": "uint16",
          "name": "",
          "type": "uint16"
        }
      ],
      "stateMutability": "view",
      "type": "function"
    },
    {
      "inputs": [],
      "name": "MAX_LEVELS",
      "outputs": [
        {
          "internalType": "uint8",
          "name": "",
          "type": "uint8"
        }
      ],
      "stateMutability": "view",
      "type": "function"
    },
    {
      "inputs": [
        {
          "internalType": "address",
          "name": "",
          "type": "address"
        }
      ],
      "name": "accruedToken",
      "outputs": [
        {
          "internalType": "address",
          "name": "",
          "type": "address"
        }
      ],
      "stateMutability": "view",
      "type": "function"
    },
    {
      "inputs": [
        {
          "internalType": "uint256",
          "name": "stakedAmount",
          "type": "uint256"
        },
        {
          "internalType": "uint16",
          "name": "directBps",
          "type": "uint16"
        }
      ],
      "name": "calculateDirectCommission",
      "outputs": [
        {
          "internalType": "uint256",
          "name": "",
          "type": "uint256"
        }
      ],
      "stateMutability": "pure",
      "type": "function"
    },
    {
      "inputs": [
        {
          "internalType": "uint256",
          "name": "epochId",
          "type": "uint256"
        },
        {
          "internalType": "address",
          "name": "token",
          "type": "address"
        },
        {
          "internalType": "uint256",
          "name": "amount",
          "type": "uint256"
        },
        {
          "internalType": "bytes32[]",
          "name": "proof",
          "type": "bytes32[]"
        }
      ],
      "name": "claimReferral",
      "outputs": [],
      "stateMutability": "nonpayable",
      "type": "function"
    },
    {
      "inputs": [
        {
          "internalType": "uint256",
          "name": "",
          "type": "uint256"
        },
        {
          "internalType": "address",
          "name": "",
          "type": "address"
        }
      ],
      "name": "claimedInEpoch",
      "outputs": [
        {
          "internalType": "bool",
          "name": "",
          "type": "bool"
        }
      ],
      "stateMutability": "view",
      "type": "function"
    },
    {
      "inputs": [
        {
          "internalType": "address",
          "name": "",
          "type": "address"
        }
      ],
      "name": "directAccrued",
      "outputs": [
        {
          "internalType": "uint256",
          "name": "",
          "type": "uint256"
        }
      ],
      "stateMutability": "view",
      "type": "function"
    },
    {
      "inputs": [
        {
          "internalType": "address",
          "name": "token",
          "type": "address"
        },
        {
          "internalType": "uint256",
          "name": "amount",
          "type": "uint256"
        },
        {
          "internalType": "address",
          "name": "to",
          "type": "address"
        }
      ],
      "name": "emergencyRecoverTokens",
      "outputs": [],
      "stateMutability": "nonpayable",
      "type": "function"
    },
    {
      "inputs": [
        {
          "internalType": "address",
          "name": "token",
          "type": "address"
        },
        {
          "internalType": "uint256",
          "name": "amount",
          "type": "uint256"
        }
      ],
      "name": "fundContract",
      "outputs": [],
      "stateMutability": "nonpayable",
      "type": "function"
    },
    {
      "inputs": [
        {
          "internalType": "address",
          "name": "referrer",
          "type": "address"
        }
      ],
      "name": "getDirectAccrual",
      "outputs": [
        {
          "internalType": "uint256",
          "name": "",
          "type": "uint256"
        }
      ],
      "stateMutability": "view",
      "type": "function"
    },
    {
      "inputs": [
        {
          "internalType": "uint256",
          "name": "epochId",
          "type": "uint256"
        }
      ],
      "name": "getPayoutRootInfo",
      "outputs": [
        {
          "internalType": "bytes32",
          "name": "root",
          "type": "bytes32"
        },
        {
          "internalType": "address",
          "name": "token",
          "type": "address"
        },
        {
          "internalType": "uint256",
          "name": "totalAmount",
          "type": "uint256"
        },
        {
          "internalType": "uint256",
          "name": "claimed",
          "type": "uint256"
        },
        {
          "internalType": "bool",
          "name": "funded",
          "type": "bool"
        }
      ],
      "stateMutability": "view",
      "type": "function"
    },
    {
      "inputs": [
        {
          "internalType": "uint256",
          "name": "poolId",
          "type": "uint256"
        }
      ],
      "name": "getPoolLevelConfig",
      "outputs": [
        {
          "internalType": "uint16[]",
          "name": "mlBps",
          "type": "uint16[]"
        }
      ],
      "stateMutability": "view",
      "type": "function"
    },
    {
      "inputs": [
        {
          "internalType": "address",
          "name": "buyer",
          "type": "address"
        },
        {
          "internalType": "uint8",
          "name": "maxLevels",
          "type": "uint8"
        }
      ],
      "name": "getReferralChain",
      "outputs": [
        {
          "internalType": "address[]",
          "name": "chain",
          "type": "address[]"
        }
      ],
      "stateMutability": "view",
      "type": "function"
    },
    {
      "inputs": [
        {
          "internalType": "address",
          "name": "buyer",
          "type": "address"
        }
      ],
      "name": "getReferrer",
      "outputs": [
        {
          "internalType": "address",
          "name": "",
          "type": "address"
        }
      ],
      "stateMutability": "view",
      "type": "function"
    },
    {
      "inputs": [
        {
          "internalType": "uint256",
          "name": "epochId",
          "type": "uint256"
        },
        {
          "internalType": "address",
          "name": "user",
          "type": "address"
        }
      ],
      "name": "hasClaimed",
      "outputs": [
        {
          "internalType": "bool",
          "name": "",
          "type": "bool"
        }
      ],
      "stateMutability": "view",
      "type": "function"
    },
    {
      "inputs": [
        {
          "internalType": "address",
          "name": "buyer",
          "type": "address"
        },
        {
          "internalType": "address",
          "name": "referrer",
          "type": "address"
        },
        {
          "internalType": "bytes32",
          "name": "codeHash",
          "type": "bytes32"
        }
      ],
      "name": "linkReferrer",
      "outputs": [],
      "stateMutability": "nonpayable",
      "type": "function"
    },
    {
      "inputs": [],
      "name": "owner",
      "outputs": [
        {
          "internalType": "address",
          "name": "",
          "type": "address"
        }
      ],
      "stateMutability": "view",
      "type": "function"
    },
    {
      "inputs": [
        {
          "internalType": "uint256",
          "name": "",
          "type": "uint256"
        }
      ],
      "name": "payoutRoots",
      "outputs": [
        {
          "internalType": "bytes32",
          "name": "root",
          "type": "bytes32"
        },
        {
          "internalType": "address",
          "name": "token",
          "type": "address"
        },
        {
          "internalType": "uint256",
          "name": "totalAmount",
          "type": "uint256"
        },
        {
          "internalType": "uint256",
          "name": "claimed",
          "type": "uint256"
        },
        {
          "internalType": "bool",
          "name": "funded",
          "type": "bool"
        },
        {
          "internalType": "uint64",
          "name": "createdAt",
          "type": "uint64"
        },
        {
          "internalType": "uint64",
          "name": "expiry",
          "type": "uint64"
        }
      ],
      "stateMutability": "view",
      "type": "function"
    },
    {
      "inputs": [
        {
          "internalType": "uint256",
          "name": "",
          "type": "uint256"
        },
        {
          "internalType": "uint256",
          "name": "",
          "type": "uint256"
        }
      ],
      "name": "poolLevelConfig",
      "outputs": [
        {
          "internalType": "uint16",
          "name": "",
          "type": "uint16"
        }
      ],
      "stateMutability": "view",
      "type": "function"
    },
    {
      "inputs": [],
      "name": "poolManager",
      "outputs": [
        {
          "internalType": "address",
          "name": "",
          "type": "address"
        }
      ],
      "stateMutability": "view",
      "type": "function"
    },
    {
      "inputs": [
        {
          "internalType": "bytes32",
          "name": "codeHash",
          "type": "bytes32"
        },
        {
          "internalType": "address",
          "name": "buyer",
          "type": "address"
        },
        {
          "internalType": "address",
          "name": "referrer",
          "type": "address"
        },
        {
          "internalType": "uint256",
          "name": "poolId",
          "type": "uint256"
        },
        {
          "internalType": "uint256",
          "name": "stakedAmount",
          "type": "uint256"
        },
        {
          "internalType": "address",
          "name": "token",
          "type": "address"
        },
        {
          "internalType": "uint16",
          "name": "directBps",
          "type": "uint16"
        },
        {
          "internalType": "bool",
          "name": "transferOnUse",
          "type": "bool"
        }
      ],
      "name": "recordPurchaseAndPayDirect",
      "outputs": [
        {
          "internalType": "uint256",
          "name": "directAmount",
          "type": "uint256"
        }
      ],
      "stateMutability": "nonpayable",
      "type": "function"
    },
    {
      "inputs": [
        {
          "internalType": "address",
          "name": "claimant",
          "type": "address"
        },
        {
          "internalType": "uint256",
          "name": "poolId",
          "type": "uint256"
        },
        {
          "internalType": "uint256",
          "name": "rewardAmount",
          "type": "uint256"
        }
      ],
      "name": "recordRewardClaimEvent",
      "outputs": [],
      "stateMutability": "nonpayable",
      "type": "function"
    },
    {
      "inputs": [],
      "name": "referralVoucher",
      "outputs": [
        {
          "internalType": "contract IReferralVoucher",
          "name": "",
          "type": "address"
        }
      ],
      "stateMutability": "view",
      "type": "function"
    },
    {
      "inputs": [
        {
          "internalType": "address",
          "name": "",
          "type": "address"
        }
      ],
      "name": "referrerOf",
      "outputs": [
        {
          "internalType": "address",
          "name": "",
          "type": "address"
        }
      ],
      "stateMutability": "view",
      "type": "function"
    },
    {
      "inputs": [],
      "name": "renounceOwnership",
      "outputs": [],
      "stateMutability": "nonpayable",
      "type": "function"
    },
    {
      "inputs": [
        {
          "components": [
            {
              "internalType": "bytes32",
              "name": "vid",
              "type": "bytes32"
            },
            {
              "internalType": "bytes32",
              "name": "codeHash",
              "type": "bytes32"
            },
            {
              "internalType": "address",
              "name": "owner",
              "type": "address"
            },
            {
              "internalType": "uint16",
              "name": "directBps",
              "type": "uint16"
            },
            {
              "internalType": "bool",
              "name": "transferOnUse",
              "type": "bool"
            },
            {
              "internalType": "uint64",
              "name": "expiry",
              "type": "uint64"
            },
            {
              "internalType": "uint32",
              "name": "maxUses",
              "type": "uint32"
            },
            {
              "internalType": "uint256",
              "name": "nonce",
              "type": "uint256"
            }
          ],
          "internalType": "struct IReferralVoucher.VoucherInput",
          "name": "voucherInput",
          "type": "tuple"
        },
        {
          "internalType": "bytes",
          "name": "voucherSignature",
          "type": "bytes"
        }
      ],
      "name": "setMyReferrer",
      "outputs": [],
      "stateMutability": "nonpayable",
      "type": "function"
    },
    {
      "inputs": [
        {
          "internalType": "address",
          "name": "user",
          "type": "address"
        },
        {
          "components": [
            {
              "internalType": "bytes32",
              "name": "vid",
              "type": "bytes32"
            },
            {
              "internalType": "bytes32",
              "name": "codeHash",
              "type": "bytes32"
            },
            {
              "internalType": "address",
              "name": "owner",
              "type": "address"
            },
            {
              "internalType": "uint16",
              "name": "directBps",
              "type": "uint16"
            },
            {
              "internalType": "bool",
              "name": "transferOnUse",
              "type": "bool"
            },
            {
              "internalType": "uint64",
              "name": "expiry",
              "type": "uint64"
            },
            {
              "internalType": "uint32",
              "name": "maxUses",
              "type": "uint32"
            },
            {
              "internalType": "uint256",
              "name": "nonce",
              "type": "uint256"
            }
          ],
          "internalType": "struct IReferralVoucher.VoucherInput",
          "name": "voucherInput",
          "type": "tuple"
        },
        {
          "internalType": "bytes",
          "name": "voucherSignature",
          "type": "bytes"
        }
      ],
      "name": "setMyReferrerFor",
      "outputs": [],
      "stateMutability": "nonpayable",
      "type": "function"
    },
    {
      "inputs": [
        {
          "internalType": "uint256",
          "name": "poolId",
          "type": "uint256"
        },
        {
          "internalType": "uint16[]",
          "name": "mlBps",
          "type": "uint16[]"
        }
      ],
      "name": "setPoolLevelConfig",
      "outputs": [],
      "stateMutability": "nonpayable",
      "type": "function"
    },
    {
      "inputs": [
        {
          "internalType": "address",
          "name": "_poolManager",
          "type": "address"
        }
      ],
      "name": "setPoolManager",
      "outputs": [],
      "stateMutability": "nonpayable",
      "type": "function"
    },
    {
      "inputs": [
        {
          "internalType": "address",
          "name": "_referralVoucher",
          "type": "address"
        }
      ],
      "name": "setReferralVoucher",
      "outputs": [],
      "stateMutability": "nonpayable",
      "type": "function"
    },
    {
      "inputs": [
        {
          "internalType": "uint256",
          "name": "epochId",
          "type": "uint256"
        },
        {
          "internalType": "address",
          "name": "token",
          "type": "address"
        },
        {
          "internalType": "uint256",
          "name": "totalAmount",
          "type": "uint256"
        },
        {
          "internalType": "bytes32",
          "name": "merkleRoot",
          "type": "bytes32"
        },
        {
          "internalType": "uint64",
          "name": "expiry",
          "type": "uint64"
        }
      ],
      "name": "submitReferralPayoutRoot",
      "outputs": [],
      "stateMutability": "nonpayable",
      "type": "function"
    },
    {
      "inputs": [],
      "name": "totalDirectPaid",
      "outputs": [
        {
          "internalType": "uint256",
          "name": "",
          "type": "uint256"
        }
      ],
      "stateMutability": "view",
      "type": "function"
    },
    {
      "inputs": [],
      "name": "totalMultiLevelPaid",
      "outputs": [
        {
          "internalType": "uint256",
          "name": "",
          "type": "uint256"
        }
      ],
      "stateMutability": "view",
      "type": "function"
    },
    {
      "inputs": [
        {
          "internalType": "address",
          "name": "newOwner",
          "type": "address"
        }
      ],
      "name": "transferOwnership",
      "outputs": [],
      "stateMutability": "nonpayable",
      "type": "function"
    },
    {
      "inputs": [
        {
          "internalType": "uint256",
          "name": "amount",
          "type": "uint256"
        }
      ],
      "name": "withdrawDirectAccrual",
      "outputs": [],
      "stateMutability": "nonpayable",
      "type": "function"
    },
    {
      "inputs": [
        {
          "internalType": "address",
          "name": "referrer",
          "type": "address"
        },
        {
          "internalType": "uint256",
          "name": "amount",
          "type": "uint256"
        },
        {
          "internalType": "address",
          "name": "to",
          "type": "address"
        }
      ],
      "name": "withdrawDirectAccrualFor",
      "outputs": [],
      "stateMutability": "nonpayable",
      "type": "function"
    },
    {
      "inputs": [
        {
          "internalType": "uint256",
          "name": "epochId",
          "type": "uint256"
        },
        {
          "internalType": "address",
          "name": "to",
          "type": "address"
        }
      ],
      "name": "withdrawUnclaimed",
      "outputs": [],
      "stateMutability": "nonpayable",
      "type": "function"
    }
  ],
  "bytecode": "0x60808060405234607957331560635760008054336001600160a01b0319821681178355916001600160a01b03909116907f8be0079c531659141344cd1fd0a4f28419497f9722a3daafe3b4186f6b6457e09080a3600180556121af908161007f8239f35b631e4fbdf760e01b600052600060045260246000fd5b600080fdfe6080604052600436101561001257600080fd5b60003560e01c806302c2690c146111c757806321d31c8414611c4d578063245b848c14611bc457806324c0390e14611963578063275dae481461186357806342e02fb4146117ee5780634a9fefc71461099d5780634c4c94f8146117ac57806351e66559146114eb578063531ed37a146114aa5780635c66dffd146114415780636637e38c146114245780636702c7bf1461140857806369ffd2e6146113bb57806370baab6c14611339578063715018a6146112e0578063773c7520146112b75780637a91ff2014610fb45780637aa1eba61461127d5780637aef671514611214578063873f6f9e146111c75780638d17a5b7146110f55780638da5cb5b146110cc5780639d7757d41461100c5780639ef8019114610fee578063ace7e32014610fb4578063b918ca7814610f96578063c198f6cb14610dce578063c402cb3d14610c96578063c59aaf2d14610b9e578063cb8a7b79146109df578063d21cacdf1461099d578063d486b5d014610624578063dc4c90d3146105fb578063e91f558b14610597578063ee588e08146102415763f2fde38b146101b357600080fd5b3461023c57602036600319011261023c576101cc611edc565b6101d46120d5565b6001600160a01b0316801561022657600080546001600160a01b03198116831782556001600160a01b0316907f8be0079c531659141344cd1fd0a4f28419497f9722a3daafe3b4186f6b6457e09080a3005b631e4fbdf760e01b600052600060045260246000fd5b600080fd5b3461023c5761010036600319011261023c5760043561025e611ec6565b604435916001600160a01b0383169081840361023c57606435916084359160a4359560018060a01b03871680970361023c5760c4359361ffff851680950361023c5760e43596871515880361023c576008546001600160a01b031633141580610582575b610571576102ce612075565b6127108611610560576001600160a01b03169484861461054f576000858152600360205260409020546001600160a01b0316861461053e576000868152600360205260409020546001600160a01b03166105025761036a612710918760005260036020526040600020876001600160601b0360a01b825416179055868860008051602061215a83398151915260206040518a8152a35b8361202f565b049687610381575b60208860018055604051908152f35b15610479576040516370a0823160e01b81523060048201526020816024818c5afa801561046d578891600091610438575b5010610427576104177f5e928b90fe91ec472824f14bb8cb4cd7f46112ef5565a32f46144003bd7f0352936103eb89809560209c612097565b6103f784600a54612015565b600a55604051938493846040919493926060820195825260208201520152565b0390a45b82808080808080610372565b631e9acf1760e31b60005260046000fd5b9150506020813d602011610465575b8161045460209383611fdd565b8101031261023c578790518a6103b2565b3d9150610447565b6040513d6000823e3d90fd5b8691506104fa7fbd51ff0326ba7692d3396a6072416cbc2f9920852d26b41b555525ac94326514936020998660005260048b5260406000206104bc868254612015565b90558660005260058b526040600020906001600160601b0360a01b825416179055604051938493846040919493926060820195825260208201520152565b0390a461041b565b6000868152600360205260409020546001600160a01b031685900361052d5761036a61271091610364565b6312cf907360e31b60005260046000fd5b632969f8fb60e21b60005260046000fd5b632af47b8760e11b60005260046000fd5b6306b7c75960e31b60005260046000fd5b635c427cd960e01b60005260046000fd5b506000546001600160a01b03163314156102c2565b3461023c57602036600319011261023c57600435600052600660205260a06040600020805490600180841b0360018201541690600281015460ff60046003840154930154169260405194855260208501526040840152606083015215156080820152f35b3461023c57600036600319011261023c576008546040516001600160a01b039091168152602090f35b3461023c57602036600319011261023c576004356000526002602052604060002060405190818260208354928381520180936000526020600020926000905b80600f8301106108b5576106fc9454918181106108a0575b818110610888575b818110610871575b818110610859575b818110610841575b818110610829575b818110610811575b8181106107f9575b8181106107e1575b8181106107c9575b8181106107b1575b818110610799575b818110610781575b818110610769575b818110610751575b10610743575b509392930382611fdd565b6040519182916020830190602084525180915260408301919060005b818110610726575050500390f35b825161ffff16845285945060209384019390920191600101610718565b60f01c8152602001856106f1565b92602060019161ffff8560e01c1681520193016106eb565b92602060019161ffff8560d01c1681520193016106e3565b92602060019161ffff8560c01c1681520193016106db565b92602060019161ffff8560b01c1681520193016106d3565b92602060019161ffff8560a01c1681520193016106cb565b92602060019161ffff8560901c1681520193016106c3565b92602060019161ffff8560801c1681520193016106bb565b92602060019161ffff8560701c1681520193016106b3565b92602060019161ffff8560601c1681520193016106ab565b92602060019161ffff8560501c1681520193016106a3565b92602060019161ffff8560401c16815201930161069b565b92602060019161ffff8560301c168152019301610693565b92602060019161ffff85831c16815201930161068b565b92602060019161ffff8560101c168152019301610683565b92602060019161ffff8516815201930161067b565b916010919350610200600191865461ffff8116825261ffff81861c16602083015261ffff8160201c16604083015261ffff8160301c16606083015261ffff8160401c16608083015261ffff8160501c1660a083015261ffff8160601c1660c083015261ffff8160701c1660e083015261ffff8160801c1661010083015261ffff8160901c1661012083015261ffff8160a01c1661014083015261ffff8160b01c1661016083015261ffff8160c01c1661018083015261ffff8160d01c166101a083015261ffff8160e01c166101c083015260f01c6101e0820152019401920185929391610663565b3461023c57602036600319011261023c576001600160a01b036109be611edc565b166000526003602052602060018060a01b0360406000205416604051908152f35b3461023c5760a036600319011261023c576004356109fb611ec6565b9060443560643592608435906001600160401b0382169081830361023c57610a216120d5565b846000526006602052604060002054610b8d576001600160a01b0316908115610b7c578315610b6b578515610b6b576040516370a0823160e01b8152306004820152602081602481865afa801561046d578591600091610b36575b5010610427577f340dd5a0aa3b8d3a1201ecc8c0340aa289d85fb2f8878001a62df4fd392f3705936060938660005260066020526004604060002089815560018101866001600160601b0360a01b825416179055836002820155600060038201550190600170ffffffffffffffff00000000000000000083549260481b169170ffffffffffffffffffffffffffffffffff19161768ffffffffffffffff004260081b161717905560405192835260208301526040820152a3005b9150506020813d602011610b63575b81610b5260209383611fdd565b8101031261023c5784905188610a7c565b3d9150610b45565b63162908e360e11b60005260046000fd5b63e6c4247b60e01b60005260046000fd5b631c1b415b60e11b60005260046000fd5b3461023c57606036600319011261023c57610bb7611edc565b610bbf611ec6565b6008546001600160a01b031633141580610c81575b610571576001600160a01b03908116911680821461054f576000828152600360205260409020546001600160a01b0316811461053e576000818152600360205260409020546001600160a01b0316610c62578060005260036020526040600020826001600160601b0360a01b82541617905560008051602061215a83398151915260206040516044358152a3005b6000908152600360205260409020546001600160a01b03160361052d57005b506000546001600160a01b0316331415610bd4565b3461023c57604036600319011261023c57610caf611edc565b60243560ff811680910361023c57610cc681611ffe565b91610cd46040519384611fdd565b818352610ce082611ffe565b602084019190601f19013683376001600160a01b03908116600090815260036020526040812054909291165b6001600160a01b03169182151580610dc2575b15610d745760ff169180610d338487612061565b526000908152600360205260409020546001600160a01b03169160ff8114610d5e5760010191610d0c565b634e487b7160e01b600052601160045260246000fd5b81856040519182916020830190602084525180915260408301919060005b818110610da0575050500390f35b82516001600160a01b0316845285945060209384019390920191600101610d92565b508360ff821610610d1f565b3461023c57604036600319011261023c576004356024356001600160401b03811161023c57610e01903690600401611f1f565b90610e0a6120d5565b81158015610f8c575b610560576000805b838210610f66576113889150116105605782600052600260205260406000208054906000815581610f3f575b505060005b828110610ec5575060405191806020840160208552526040830191906000905b808210610e9c57857f761c24a2ceb63c0455f589b5988d8b18eac758176c30b3d8a24928c1288147f886860387a2005b90919283359061ffff8216820361023c576020809161ffff600194168152019401920190610e6c565b836000526002602052604060002090610ee7610ee2828686612042565b612052565b82549268010000000000000000841015610f295783610f0c9160018096018155611f89565b61ffff80839493549260031b9316831b921b191617905501610e4c565b634e487b7160e01b600052604160045260246000fd5b600052600f6020600020910160041c8101905b81811015610e475760008155600101610f52565b610f8460019161ffff610f7d610ee2868989612042565b1690612015565b910190610e1b565b50600a8211610e13565b3461023c57600036600319011261023c576020600b54604051908152f35b3461023c57602036600319011261023c576001600160a01b03610fd5611edc565b1660005260046020526020604060002054604051908152f35b3461023c57600036600319011261023c576020600a54604051908152f35b3461023c57602036600319011261023c57600435611028612075565b336000526004602052604060002054908115610b6b57806110c65750805b808211610b6b57336000908152600560205260409020546001600160a01b0316908115610b7c576110929161107c848093612022565b3360005260046020526040600020553390612097565b60405190815233907f6976eed164df00e34d0f667520ce61e936dfb1f5e995221247549daa7175181260203392a360018055005b90611046565b3461023c57600036600319011261023c576000546040516001600160a01b039091168152602090f35b3461023c5761110336611f4f565b909161110d6120d5565b611115612075565b6001600160a01b03166000818152600460205260409020549091811580156111be575b610b6b576001600160a01b038116938415610b7c576000848152600560205260409020546001600160a01b03168015610b7c57816020936111b19261119e837f6976eed164df00e34d0f667520ce61e936dfb1f5e995221247549daa7175181298612022565b8860005260048752604060002055612097565b604051908152a360018055005b50818411611138565b3461023c57604036600319011261023c576111e0611ec6565b600435600052600760205260406000209060018060a01b0316600052602052602060ff604060002054166040519015158152f35b3461023c57602036600319011261023c5761122d611edc565b6112356120d5565b6001600160a01b03168015610b7c57600880546001600160a01b031916821790557f181b126158932b45e642aeb48f81b946563bf584a35e78d6a25b013c8d41ff8f600080a2005b3461023c57604036600319011261023c5760243561ffff811680910361023c576127106112ae60209260043561202f565b04604051908152f35b3461023c57600036600319011261023c576009546040516001600160a01b039091168152602090f35b3461023c57600036600319011261023c576112f96120d5565b600080546001600160a01b0319811682556001600160a01b03167f8be0079c531659141344cd1fd0a4f28419497f9722a3daafe3b4186f6b6457e08280a3005b3461023c57602036600319011261023c57600435600052600660205260e060406000206001600160401b0381549160018060a01b03600182015416906002810154600460038301549201549260405195865260208601526040850152606084015260ff811615156080840152818160081c1660a084015260481c1660c0820152f35b3461023c57604036600319011261023c576024356004356000526002602052604060002090815481101561023c576113f861ffff91602093611f89565b90549060031b1c16604051908152f35b3461023c57600036600319011261023c576020604051600a8152f35b3461023c57600036600319011261023c5760206040516127108152f35b3461023c57602036600319011261023c5761145a611edc565b6114626120d5565b6001600160a01b03168015610b7c57600980546001600160a01b031916821790557f683c3c3025c347557620d51fbc91d2dbe32e4ae38fba1933f8227d4ed97e9cf0600080a2005b3461023c576114b836611f4f565b916114c16120d5565b6001600160a01b0316918215610b7c576001600160a01b03811615610b7c576114e992612097565b005b3461023c5761014036600319011261023c57611505611edc565b61010036602319011261023c57610124356001600160401b03811161023c57611532903690600401611ef2565b909160018060a01b036008541633141580611797575b61057157611554612075565b6001600160a01b039081166000818152600360205260409020549092911661052d576009546001600160a01b0316928315610b7c57602435938415610b6b576040516367ec05a560e01b8152600481019590955260443560248601526064356001600160a01b0381169081900361023c57604486015260843561ffff811680910361023c57606486015260a43580151580910361023c57608486015260c4356001600160401b03811680910361023c5760a486015260e4359163ffffffff831680930361023c576000610164878660a097829795839660c48501526101043560e485015261014061010485015281610144850152848401378383828401015288610124830152601f801991011681010301925af191821561046d576000926116f3575b5060018060a01b03602083015116915182821461054f576000838152600360205260409020546001600160a01b0316821461053e5760008281526003602090815260409182902080546001600160a01b0319166001600160a01b038716179055905191825260008051602061215a83398151915291a360018055005b909160a0823d60a01161178f575b8161170e60a09383611fdd565b81010312611788576040519161172383611fc2565b8051835260208101516001600160a01b038116810361178b576020840152604081015161ffff8116810361178b5760408401526060810151801515810361178b576060840152608001519063ffffffff82168203611788575060808201529082611677565b80fd5b8280fd5b3d9150611701565b506000546001600160a01b0316331415611548565b3461023c57602036600319011261023c576001600160a01b036117cd611edc565b166000526005602052602060018060a01b0360406000205416604051908152f35b3461023c57604036600319011261023c57611807611edc565b602435906118136120d5565b6001600160a01b0316908115610b7c578015610b6b576114e991604051916323b872dd60e01b602084015233602484015230604484015260648301526064825261185e608483611fdd565b6120fe565b3461023c57604036600319011261023c5760043561187f611ec6565b906118886120d5565b611890612075565b806000526006602052604060002091825415611952576001600160401b03600484015460481c168015908115611948575b506119375760028301549060038401906118dc825484612022565b948515610b6b578582611920927f25684f2ecbd607ce74a1476752f27ecbb4886116272b69ac88bc12fc7fddee8b96602096556001808060a01b0391015416612097565b6040519485526001600160a01b031693a360018055005b6373593a9960e01b60005260046000fd5b90504210846118c1565b6386d1007760e01b60005260046000fd5b3461023c57608036600319011261023c5760043561197f611ec6565b90604435916064356001600160401b03811161023c576119a3903690600401611f1f565b9190926119ae612075565b80600052600660205260406000209384549485156119525760ff60048201541615611bb35760018101546001600160a01b03858116939116839003610b7c57600084815260076020908152604080832033845290915290205460ff16611ba25760405160208101903360601b82526001600160601b03198760601b16603482015289604882015285606882015260688152611a4a608882611fdd565b51902090611a5787611ffe565b96611a656040519889611fdd565b808852602088019060051b82019136831161023c57905b828210611b9257505050966000975b8651891015611ad257611a9e8988612061565b5190600082821015611ac15750600052602052600160406000205b980197611a8b565b604091600193825260205220611ab9565b8703611b8157611b46817f45202ee9ab11e41157c7c464b602ec19d287899fed03cf19d5428e4c443a3dc4946003611b7895886000526007602052604060002060018060a01b0333166000526020526040600020600160ff1982541617905501611b3d838254612015565b90553390612097565b611b5281600b54612015565b600b55604080516001600160a01b03909616865260208601919091523394918291820190565b0390a360018055005b6309bde33960e01b60005260046000fd5b8135815260209182019101611a7c565b630c8d9eab60e31b60005260046000fd5b633302fa4960e21b60005260046000fd5b3461023c57606036600319011261023c57611bdd611edc565b6008546001600160a01b031633141580611c38575b61057157604080516044358152426020820152602435926001600160a01b0316917f596f25a1f5362f99c277b763b92ecd2db4cbbe2285f1b154a312ed7a4afb3e2991a3005b506000546001600160a01b0316331415611bf2565b3461023c573660031901610120811261023c576101001361023c57610104356001600160401b03811161023c57611c88903690600401611ef2565b611c90612075565b336000908152600360205260409020546001600160a01b031661052d576009546001600160a01b0316918215610b7c57600435928315610b6b576040516367ec05a560e01b8152600481019490945260248035908501526044356001600160a01b0381169081900361023c57604485015260643561ffff811680910361023c57606485015260843580151580910361023c57608485015260a4356001600160401b03811680910361023c5760a485015260c4359163ffffffff831680930361023c576000610164868660a097829795839660c485015260e43560e48501526101406101048501528161014485015284840137818101830184905233610124830152601f01601f191681010301925af190811561046d57600091611e2b575b5060018060a01b03602082015116905181331461054f576000828152600360205260409020546001600160a01b0316331461053e57336000526003602052604060002060018060a01b0383166001600160601b0360a01b82541617905560405190815260008051602061215a83398151915260203392a360018055005b9060a0823d60a011611ebe575b81611e4560a09383611fdd565b810103126117885760405191611e5a83611fc2565b8051835260208101516001600160a01b038116810361178b576020840152604081015161ffff8116810361178b5760408401526060810151801515810361178b576060840152608001519063ffffffff821682036117885750608082015281611dae565b3d9150611e38565b602435906001600160a01b038216820361023c57565b600435906001600160a01b038216820361023c57565b9181601f8401121561023c578235916001600160401b03831161023c576020838186019501011161023c57565b9181601f8401121561023c578235916001600160401b03831161023c576020808501948460051b01011161023c57565b606090600319011261023c576004356001600160a01b038116810361023c5790602435906044356001600160a01b038116810361023c5790565b9190918054831015611fac57600052601e60206000208360041c019260011b1690565b634e487b7160e01b600052603260045260246000fd5b60a081019081106001600160401b03821117610f2957604052565b90601f801991011681019081106001600160401b03821117610f2957604052565b6001600160401b038111610f295760051b60200190565b91908201809211610d5e57565b91908203918211610d5e57565b81810292918115918404141715610d5e57565b9190811015611fac5760051b0190565b3561ffff8116810361023c5790565b8051821015611fac5760209160051b010190565b600260015414612086576002600155565b633ee5aeb560e01b60005260046000fd5b60405163a9059cbb60e01b60208201526001600160a01b039290921660248301526044808301939093529181526120d39161185e606483611fdd565b565b6000546001600160a01b031633036120e957565b63118cdaa760e01b6000523360045260246000fd5b906000602091828151910182855af11561046d576000513d61215057506001600160a01b0381163b155b61212f5750565b635274afe760e01b60009081526001600160a01b0391909116600452602490fd5b6001141561212856fe4645a3a986f4320fb70dc2a738697d6e1afd077c11843402dc2ab78addf8d2bda26469706673582212209208cf82b20d2d8b50aa2b4a9e33ac7659a65b7383192fa25576136501cbd8df64736f6c634300081c0033",
  "linkReferences": {},
  "deployedLinkReferences": {}
}